{
  "contractName": "Fantom721Collection",
  "abi": [
    {
      "inputs": [],
      "stateMutability": "nonpayable",
      "type": "constructor"
    },
    {
      "anonymous": false,
      "inputs": [
        {
          "indexed": true,
          "internalType": "address",
          "name": "owner",
          "type": "address"
        },
        {
          "indexed": true,
          "internalType": "address",
          "name": "approved",
          "type": "address"
        },
        {
          "indexed": true,
          "internalType": "uint256",
          "name": "tokenId",
          "type": "uint256"
        }
      ],
      "name": "Approval",
      "type": "event"
    },
    {
      "anonymous": false,
      "inputs": [
        {
          "indexed": true,
          "internalType": "address",
          "name": "owner",
          "type": "address"
        },
        {
          "indexed": true,
          "internalType": "address",
          "name": "operator",
          "type": "address"
        },
        {
          "indexed": false,
          "internalType": "bool",
          "name": "approved",
          "type": "bool"
        }
      ],
      "name": "ApprovalForAll",
      "type": "event"
    },
    {
      "anonymous": false,
      "inputs": [
        {
          "indexed": true,
          "internalType": "address",
          "name": "from",
          "type": "address"
        },
        {
          "indexed": true,
          "internalType": "address",
          "name": "to",
          "type": "address"
        },
        {
          "indexed": true,
          "internalType": "uint256",
          "name": "tokenId",
          "type": "uint256"
        }
      ],
      "name": "Transfer",
      "type": "event"
    },
    {
      "inputs": [
        {
          "internalType": "address",
          "name": "to",
          "type": "address"
        },
        {
          "internalType": "uint256",
          "name": "tokenId",
          "type": "uint256"
        }
      ],
      "name": "approve",
      "outputs": [],
      "stateMutability": "nonpayable",
      "type": "function"
    },
    {
      "inputs": [
        {
          "internalType": "address",
          "name": "owner",
          "type": "address"
        }
      ],
      "name": "balanceOf",
      "outputs": [
        {
          "internalType": "uint256",
          "name": "",
          "type": "uint256"
        }
      ],
      "stateMutability": "view",
      "type": "function",
      "constant": true
    },
    {
      "inputs": [
        {
          "internalType": "uint256",
          "name": "tokenId",
          "type": "uint256"
        }
      ],
      "name": "getApproved",
      "outputs": [
        {
          "internalType": "address",
          "name": "",
          "type": "address"
        }
      ],
      "stateMutability": "view",
      "type": "function",
      "constant": true
    },
    {
      "inputs": [
        {
          "internalType": "address",
          "name": "owner",
          "type": "address"
        },
        {
          "internalType": "address",
          "name": "operator",
          "type": "address"
        }
      ],
      "name": "isApprovedForAll",
      "outputs": [
        {
          "internalType": "bool",
          "name": "",
          "type": "bool"
        }
      ],
      "stateMutability": "view",
      "type": "function",
      "constant": true
    },
    {
      "inputs": [],
      "name": "name",
      "outputs": [
        {
          "internalType": "string",
          "name": "",
          "type": "string"
        }
      ],
      "stateMutability": "view",
      "type": "function",
      "constant": true
    },
    {
      "inputs": [
        {
          "internalType": "uint256",
          "name": "tokenId",
          "type": "uint256"
        }
      ],
      "name": "ownerOf",
      "outputs": [
        {
          "internalType": "address",
          "name": "",
          "type": "address"
        }
      ],
      "stateMutability": "view",
      "type": "function",
      "constant": true
    },
    {
      "inputs": [
        {
          "internalType": "address",
          "name": "from",
          "type": "address"
        },
        {
          "internalType": "address",
          "name": "to",
          "type": "address"
        },
        {
          "internalType": "uint256",
          "name": "tokenId",
          "type": "uint256"
        }
      ],
      "name": "safeTransferFrom",
      "outputs": [],
      "stateMutability": "nonpayable",
      "type": "function"
    },
    {
      "inputs": [
        {
          "internalType": "address",
          "name": "from",
          "type": "address"
        },
        {
          "internalType": "address",
          "name": "to",
          "type": "address"
        },
        {
          "internalType": "uint256",
          "name": "tokenId",
          "type": "uint256"
        },
        {
          "internalType": "bytes",
          "name": "data",
          "type": "bytes"
        }
      ],
      "name": "safeTransferFrom",
      "outputs": [],
      "stateMutability": "nonpayable",
      "type": "function"
    },
    {
      "inputs": [
        {
          "internalType": "address",
          "name": "operator",
          "type": "address"
        },
        {
          "internalType": "bool",
          "name": "approved",
          "type": "bool"
        }
      ],
      "name": "setApprovalForAll",
      "outputs": [],
      "stateMutability": "nonpayable",
      "type": "function"
    },
    {
      "inputs": [
        {
          "internalType": "bytes4",
          "name": "interfaceId",
          "type": "bytes4"
        }
      ],
      "name": "supportsInterface",
      "outputs": [
        {
          "internalType": "bool",
          "name": "",
          "type": "bool"
        }
      ],
      "stateMutability": "view",
      "type": "function",
      "constant": true
    },
    {
      "inputs": [],
      "name": "symbol",
      "outputs": [
        {
          "internalType": "string",
          "name": "",
          "type": "string"
        }
      ],
      "stateMutability": "view",
      "type": "function",
      "constant": true
    },
    {
      "inputs": [],
      "name": "tokenCounter",
      "outputs": [
        {
          "internalType": "uint256",
          "name": "",
          "type": "uint256"
        }
      ],
      "stateMutability": "view",
      "type": "function",
      "constant": true
    },
    {
      "inputs": [
        {
          "internalType": "uint256",
          "name": "tokenId",
          "type": "uint256"
        }
      ],
      "name": "tokenURI",
      "outputs": [
        {
          "internalType": "string",
          "name": "",
          "type": "string"
        }
      ],
      "stateMutability": "view",
      "type": "function",
      "constant": true
    },
    {
      "inputs": [
        {
          "internalType": "address",
          "name": "from",
          "type": "address"
        },
        {
          "internalType": "address",
          "name": "to",
          "type": "address"
        },
        {
          "internalType": "uint256",
          "name": "tokenId",
          "type": "uint256"
        }
      ],
      "name": "transferFrom",
      "outputs": [],
      "stateMutability": "nonpayable",
      "type": "function"
    },
    {
      "inputs": [
        {
          "internalType": "string",
          "name": "tokenURI",
          "type": "string"
        }
      ],
      "name": "createCollectible",
      "outputs": [
        {
          "internalType": "uint256",
          "name": "",
          "type": "uint256"
        }
      ],
      "stateMutability": "nonpayable",
      "type": "function"
    }
  ],
  "bytecode": "0x60806040523480156200001157600080fd5b506040518060400160405280600f81526020017f434f4c4c454354494f4e5f4e414d4500000000000000000000000000000000008152506040518060400160405280601181526020017f434f4c4c454354494f4e5f5449434b455200000000000000000000000000000081525081600090816200008f91906200032c565b508060019081620000a191906200032c565b505050600060078190555062000413565b600081519050919050565b7f4e487b7100000000000000000000000000000000000000000000000000000000600052604160045260246000fd5b7f4e487b7100000000000000000000000000000000000000000000000000000000600052602260045260246000fd5b600060028204905060018216806200013457607f821691505b6020821081036200014a5762000149620000ec565b5b50919050565b60008190508160005260206000209050919050565b60006020601f8301049050919050565b600082821b905092915050565b600060088302620001b47fffffffffffffffffffffffffffffffffffffffffffffffffffffffffffffffff8262000175565b620001c0868362000175565b95508019841693508086168417925050509392505050565b6000819050919050565b6000819050919050565b60006200020d620002076200020184620001d8565b620001e2565b620001d8565b9050919050565b6000819050919050565b6200022983620001ec565b62000241620002388262000214565b84845462000182565b825550505050565b600090565b6200025862000249565b620002658184846200021e565b505050565b5b818110156200028d57620002816000826200024e565b6001810190506200026b565b5050565b601f821115620002dc57620002a68162000150565b620002b18462000165565b81016020851015620002c1578190505b620002d9620002d08562000165565b8301826200026a565b50505b505050565b600082821c905092915050565b60006200030160001984600802620002e1565b1980831691505092915050565b60006200031c8383620002ee565b9150826002028217905092915050565b6200033782620000b2565b67ffffffffffffffff811115620003535762000352620000bd565b5b6200035f82546200011b565b6200036c82828562000291565b600060209050601f831160018114620003a457600084156200038f578287015190505b6200039b85826200030e565b8655506200040b565b601f198416620003b48662000150565b60005b82811015620003de57848901518255600182019150602085019450602081019050620003b7565b86831015620003fe5784890151620003fa601f891682620002ee565b8355505b6001600288020188555050505b505050505050565b612c7280620004236000396000f3fe608060405234801561001057600080fd5b50600436106100f55760003560e01c80636352211e11610097578063b88d4fde11610066578063b88d4fde14610296578063c87b56dd146102b2578063d082e381146102e2578063e985e9c514610300576100f5565b80636352211e146101fc57806370a082311461022c57806395d89b411461025c578063a22cb4651461027a576100f5565b8063095ea7b3116100d3578063095ea7b31461017857806323b872dd1461019457806331f1f3c3146101b057806342842e0e146101e0576100f5565b806301ffc9a7146100fa57806306fdde031461012a578063081812fc14610148575b600080fd5b610114600480360381019061010f9190611add565b610330565b6040516101219190611b25565b60405180910390f35b610132610412565b60405161013f9190611bd0565b60405180910390f35b610162600480360381019061015d9190611c28565b6104a4565b60405161016f9190611c96565b60405180910390f35b610192600480360381019061018d9190611cdd565b6104ea565b005b6101ae60048036038101906101a99190611d1d565b610601565b005b6101ca60048036038101906101c59190611ea5565b610661565b6040516101d79190611efd565b60405180910390f35b6101fa60048036038101906101f59190611d1d565b61069b565b005b61021660048036038101906102119190611c28565b6106bb565b6040516102239190611c96565b60405180910390f35b61024660048036038101906102419190611f18565b610741565b6040516102539190611efd565b60405180910390f35b6102646107f8565b6040516102719190611bd0565b60405180910390f35b610294600480360381019061028f9190611f71565b61088a565b005b6102b060048036038101906102ab9190612052565b6108a0565b005b6102cc60048036038101906102c79190611c28565b610902565b6040516102d99190611bd0565b60405180910390f35b6102ea610a14565b6040516102f79190611efd565b60405180910390f35b61031a600480360381019061031591906120d5565b610a1a565b6040516103279190611b25565b60405180910390f35b60007f80ac58cd000000000000000000000000000000000000000000000000000000007bffffffffffffffffffffffffffffffffffffffffffffffffffffffff1916827bffffffffffffffffffffffffffffffffffffffffffffffffffffffff191614806103fb57507f5b5e139f000000000000000000000000000000000000000000000000000000007bffffffffffffffffffffffffffffffffffffffffffffffffffffffff1916827bffffffffffffffffffffffffffffffffffffffffffffffffffffffff1916145b8061040b575061040a82610aae565b5b9050919050565b60606000805461042190612144565b80601f016020809104026020016040519081016040528092919081815260200182805461044d90612144565b801561049a5780601f1061046f5761010080835404028352916020019161049a565b820191906000526020600020905b81548152906001019060200180831161047d57829003601f168201915b5050505050905090565b60006104af82610b18565b6004600083815260200190815260200160002060009054906101000a900473ffffffffffffffffffffffffffffffffffffffff169050919050565b60006104f5826106bb565b90508073ffffffffffffffffffffffffffffffffffffffff168373ffffffffffffffffffffffffffffffffffffffff1603610565576040517f08c379a000000000000000000000000000000000000000000000000000000000815260040161055c906121e7565b60405180910390fd5b8073ffffffffffffffffffffffffffffffffffffffff16610584610b63565b73ffffffffffffffffffffffffffffffffffffffff1614806105b357506105b2816105ad610b63565b610a1a565b5b6105f2576040517f08c379a00000000000000000000000000000000000000000000000000000000081526004016105e990612279565b60405180910390fd5b6105fc8383610b6b565b505050565b61061261060c610b63565b82610c24565b610651576040517f08c379a00000000000000000000000000000000000000000000000000000000081526004016106489061230b565b60405180910390fd5b61065c838383610cb9565b505050565b60008060075490506106733382610fb2565b61067d8184610fd0565b600160075461068c919061235a565b60078190555080915050919050565b6106b6838383604051806020016040528060008152506108a0565b505050565b6000806106c78361103d565b9050600073ffffffffffffffffffffffffffffffffffffffff168173ffffffffffffffffffffffffffffffffffffffff1603610738576040517f08c379a000000000000000000000000000000000000000000000000000000000815260040161072f906123da565b60405180910390fd5b80915050919050565b60008073ffffffffffffffffffffffffffffffffffffffff168273ffffffffffffffffffffffffffffffffffffffff16036107b1576040517f08c379a00000000000000000000000000000000000000000000000000000000081526004016107a89061246c565b60405180910390fd5b600360008373ffffffffffffffffffffffffffffffffffffffff1673ffffffffffffffffffffffffffffffffffffffff168152602001908152602001600020549050919050565b60606001805461080790612144565b80601f016020809104026020016040519081016040528092919081815260200182805461083390612144565b80156108805780601f1061085557610100808354040283529160200191610880565b820191906000526020600020905b81548152906001019060200180831161086357829003601f168201915b5050505050905090565b61089c610895610b63565b838361107a565b5050565b6108b16108ab610b63565b83610c24565b6108f0576040517f08c379a00000000000000000000000000000000000000000000000000000000081526004016108e79061230b565b60405180910390fd5b6108fc848484846111e6565b50505050565b606061090d82610b18565b600060066000848152602001908152602001600020805461092d90612144565b80601f016020809104026020016040519081016040528092919081815260200182805461095990612144565b80156109a65780601f1061097b576101008083540402835291602001916109a6565b820191906000526020600020905b81548152906001019060200180831161098957829003601f168201915b5050505050905060006109b7611242565b905060008151036109cc578192505050610a0f565b600082511115610a015780826040516020016109e99291906124c8565b60405160208183030381529060405292505050610a0f565b610a0a84611259565b925050505b919050565b60075481565b6000600560008473ffffffffffffffffffffffffffffffffffffffff1673ffffffffffffffffffffffffffffffffffffffff16815260200190815260200160002060008373ffffffffffffffffffffffffffffffffffffffff1673ffffffffffffffffffffffffffffffffffffffff16815260200190815260200160002060009054906101000a900460ff16905092915050565b60007f01ffc9a7000000000000000000000000000000000000000000000000000000007bffffffffffffffffffffffffffffffffffffffffffffffffffffffff1916827bffffffffffffffffffffffffffffffffffffffffffffffffffffffff1916149050919050565b610b21816112c1565b610b60576040517f08c379a0000000000000000000000000000000000000000000000000000000008152600401610b57906123da565b60405180910390fd5b50565b600033905090565b816004600083815260200190815260200160002060006101000a81548173ffffffffffffffffffffffffffffffffffffffff021916908373ffffffffffffffffffffffffffffffffffffffff160217905550808273ffffffffffffffffffffffffffffffffffffffff16610bde836106bb565b73ffffffffffffffffffffffffffffffffffffffff167f8c5be1e5ebec7d5bd14f71427d1e84f3dd0314c0f7b2291e5b200ac8c7c3b92560405160405180910390a45050565b600080610c30836106bb565b90508073ffffffffffffffffffffffffffffffffffffffff168473ffffffffffffffffffffffffffffffffffffffff161480610c725750610c718185610a1a565b5b80610cb057508373ffffffffffffffffffffffffffffffffffffffff16610c98846104a4565b73ffffffffffffffffffffffffffffffffffffffff16145b91505092915050565b8273ffffffffffffffffffffffffffffffffffffffff16610cd9826106bb565b73ffffffffffffffffffffffffffffffffffffffff1614610d2f576040517f08c379a0000000000000000000000000000000000000000000000000000000008152600401610d269061255e565b60405180910390fd5b600073ffffffffffffffffffffffffffffffffffffffff168273ffffffffffffffffffffffffffffffffffffffff1603610d9e576040517f08c379a0000000000000000000000000000000000000000000000000000000008152600401610d95906125f0565b60405180910390fd5b610dab8383836001611302565b8273ffffffffffffffffffffffffffffffffffffffff16610dcb826106bb565b73ffffffffffffffffffffffffffffffffffffffff1614610e21576040517f08c379a0000000000000000000000000000000000000000000000000000000008152600401610e189061255e565b60405180910390fd5b6004600082815260200190815260200160002060006101000a81549073ffffffffffffffffffffffffffffffffffffffff02191690556001600360008573ffffffffffffffffffffffffffffffffffffffff1673ffffffffffffffffffffffffffffffffffffffff168152602001908152602001600020600082825403925050819055506001600360008473ffffffffffffffffffffffffffffffffffffffff1673ffffffffffffffffffffffffffffffffffffffff16815260200190815260200160002060008282540192505081905550816002600083815260200190815260200160002060006101000a81548173ffffffffffffffffffffffffffffffffffffffff021916908373ffffffffffffffffffffffffffffffffffffffff160217905550808273ffffffffffffffffffffffffffffffffffffffff168473ffffffffffffffffffffffffffffffffffffffff167fddf252ad1be2c89b69c2b068fc378daa952ba7f163c4a11628f55a4df523b3ef60405160405180910390a4610fad8383836001611428565b505050565b610fcc82826040518060200160405280600081525061142e565b5050565b610fd9826112c1565b611018576040517f08c379a000000000000000000000000000000000000000000000000000000000815260040161100f90612682565b60405180910390fd5b80600660008481526020019081526020016000209081611038919061284e565b505050565b60006002600083815260200190815260200160002060009054906101000a900473ffffffffffffffffffffffffffffffffffffffff169050919050565b8173ffffffffffffffffffffffffffffffffffffffff168373ffffffffffffffffffffffffffffffffffffffff16036110e8576040517f08c379a00000000000000000000000000000000000000000000000000000000081526004016110df9061296c565b60405180910390fd5b80600560008573ffffffffffffffffffffffffffffffffffffffff1673ffffffffffffffffffffffffffffffffffffffff16815260200190815260200160002060008473ffffffffffffffffffffffffffffffffffffffff1673ffffffffffffffffffffffffffffffffffffffff16815260200190815260200160002060006101000a81548160ff0219169083151502179055508173ffffffffffffffffffffffffffffffffffffffff168373ffffffffffffffffffffffffffffffffffffffff167f17307eab39ab6107e8899845ad3d59bd9653f200f220920489ca2b5937696c31836040516111d99190611b25565b60405180910390a3505050565b6111f1848484610cb9565b6111fd84848484611489565b61123c576040517f08c379a0000000000000000000000000000000000000000000000000000000008152600401611233906129fe565b60405180910390fd5b50505050565b606060405180602001604052806000815250905090565b606061126482610b18565b600061126e611242565b9050600081511161128e57604051806020016040528060008152506112b9565b8061129884611610565b6040516020016112a99291906124c8565b6040516020818303038152906040525b915050919050565b60008073ffffffffffffffffffffffffffffffffffffffff166112e38361103d565b73ffffffffffffffffffffffffffffffffffffffff1614159050919050565b600181111561142257600073ffffffffffffffffffffffffffffffffffffffff168473ffffffffffffffffffffffffffffffffffffffff16146113965780600360008673ffffffffffffffffffffffffffffffffffffffff1673ffffffffffffffffffffffffffffffffffffffff168152602001908152602001600020600082825461138e9190612a1e565b925050819055505b600073ffffffffffffffffffffffffffffffffffffffff168373ffffffffffffffffffffffffffffffffffffffff16146114215780600360008573ffffffffffffffffffffffffffffffffffffffff1673ffffffffffffffffffffffffffffffffffffffff1681526020019081526020016000206000828254611419919061235a565b925050819055505b5b50505050565b50505050565b61143883836116de565b6114456000848484611489565b611484576040517f08c379a000000000000000000000000000000000000000000000000000000000815260040161147b906129fe565b60405180910390fd5b505050565b60006114aa8473ffffffffffffffffffffffffffffffffffffffff166118fb565b15611603578373ffffffffffffffffffffffffffffffffffffffff1663150b7a026114d3610b63565b8786866040518563ffffffff1660e01b81526004016114f59493929190612aa7565b6020604051808303816000875af192505050801561153157506040513d601f19601f8201168201806040525081019061152e9190612b08565b60015b6115b3573d8060008114611561576040519150601f19603f3d011682016040523d82523d6000602084013e611566565b606091505b5060008151036115ab576040517f08c379a00000000000000000000000000000000000000000000000000000000081526004016115a2906129fe565b60405180910390fd5b805181602001fd5b63150b7a0260e01b7bffffffffffffffffffffffffffffffffffffffffffffffffffffffff1916817bffffffffffffffffffffffffffffffffffffffffffffffffffffffff191614915050611608565b600190505b949350505050565b60606000600161161f8461191e565b01905060008167ffffffffffffffff81111561163e5761163d611d7a565b5b6040519080825280601f01601f1916602001820160405280156116705781602001600182028036833780820191505090505b509050600082602001820190505b6001156116d3578080600190039150507f3031323334353637383961626364656600000000000000000000000000000000600a86061a8153600a85816116c7576116c6612b35565b5b0494506000850361167e575b819350505050919050565b600073ffffffffffffffffffffffffffffffffffffffff168273ffffffffffffffffffffffffffffffffffffffff160361174d576040517f08c379a000000000000000000000000000000000000000000000000000000000815260040161174490612bb0565b60405180910390fd5b611756816112c1565b15611796576040517f08c379a000000000000000000000000000000000000000000000000000000000815260040161178d90612c1c565b60405180910390fd5b6117a4600083836001611302565b6117ad816112c1565b156117ed576040517f08c379a00000000000000000000000000000000000000000000000000000000081526004016117e490612c1c565b60405180910390fd5b6001600360008473ffffffffffffffffffffffffffffffffffffffff1673ffffffffffffffffffffffffffffffffffffffff16815260200190815260200160002060008282540192505081905550816002600083815260200190815260200160002060006101000a81548173ffffffffffffffffffffffffffffffffffffffff021916908373ffffffffffffffffffffffffffffffffffffffff160217905550808273ffffffffffffffffffffffffffffffffffffffff16600073ffffffffffffffffffffffffffffffffffffffff167fddf252ad1be2c89b69c2b068fc378daa952ba7f163c4a11628f55a4df523b3ef60405160405180910390a46118f7600083836001611428565b5050565b6000808273ffffffffffffffffffffffffffffffffffffffff163b119050919050565b600080600090507a184f03e93ff9f4daa797ed6e38ed64bf6a1f010000000000000000831061197c577a184f03e93ff9f4daa797ed6e38ed64bf6a1f010000000000000000838161197257611971612b35565b5b0492506040810190505b6d04ee2d6d415b85acef810000000083106119b9576d04ee2d6d415b85acef810000000083816119af576119ae612b35565b5b0492506020810190505b662386f26fc1000083106119e857662386f26fc1000083816119de576119dd612b35565b5b0492506010810190505b6305f5e1008310611a11576305f5e1008381611a0757611a06612b35565b5b0492506008810190505b6127108310611a36576127108381611a2c57611a2b612b35565b5b0492506004810190505b60648310611a595760648381611a4f57611a4e612b35565b5b0492506002810190505b600a8310611a68576001810190505b80915050919050565b6000604051905090565b600080fd5b600080fd5b60007fffffffff0000000000000000000000000000000000000000000000000000000082169050919050565b611aba81611a85565b8114611ac557600080fd5b50565b600081359050611ad781611ab1565b92915050565b600060208284031215611af357611af2611a7b565b5b6000611b0184828501611ac8565b91505092915050565b60008115159050919050565b611b1f81611b0a565b82525050565b6000602082019050611b3a6000830184611b16565b92915050565b600081519050919050565b600082825260208201905092915050565b60005b83811015611b7a578082015181840152602081019050611b5f565b60008484015250505050565b6000601f19601f8301169050919050565b6000611ba282611b40565b611bac8185611b4b565b9350611bbc818560208601611b5c565b611bc581611b86565b840191505092915050565b60006020820190508181036000830152611bea8184611b97565b905092915050565b6000819050919050565b611c0581611bf2565b8114611c1057600080fd5b50565b600081359050611c2281611bfc565b92915050565b600060208284031215611c3e57611c3d611a7b565b5b6000611c4c84828501611c13565b91505092915050565b600073ffffffffffffffffffffffffffffffffffffffff82169050919050565b6000611c8082611c55565b9050919050565b611c9081611c75565b82525050565b6000602082019050611cab6000830184611c87565b92915050565b611cba81611c75565b8114611cc557600080fd5b50565b600081359050611cd781611cb1565b92915050565b60008060408385031215611cf457611cf3611a7b565b5b6000611d0285828601611cc8565b9250506020611d1385828601611c13565b9150509250929050565b600080600060608486031215611d3657611d35611a7b565b5b6000611d4486828701611cc8565b9350506020611d5586828701611cc8565b9250506040611d6686828701611c13565b9150509250925092565b600080fd5b600080fd5b7f4e487b7100000000000000000000000000000000000000000000000000000000600052604160045260246000fd5b611db282611b86565b810181811067ffffffffffffffff82111715611dd157611dd0611d7a565b5b80604052505050565b6000611de4611a71565b9050611df08282611da9565b919050565b600067ffffffffffffffff821115611e1057611e0f611d7a565b5b611e1982611b86565b9050602081019050919050565b82818337600083830152505050565b6000611e48611e4384611df5565b611dda565b905082815260208101848484011115611e6457611e63611d75565b5b611e6f848285611e26565b509392505050565b600082601f830112611e8c57611e8b611d70565b5b8135611e9c848260208601611e35565b91505092915050565b600060208284031215611ebb57611eba611a7b565b5b600082013567ffffffffffffffff811115611ed957611ed8611a80565b5b611ee584828501611e77565b91505092915050565b611ef781611bf2565b82525050565b6000602082019050611f126000830184611eee565b92915050565b600060208284031215611f2e57611f2d611a7b565b5b6000611f3c84828501611cc8565b91505092915050565b611f4e81611b0a565b8114611f5957600080fd5b50565b600081359050611f6b81611f45565b92915050565b60008060408385031215611f8857611f87611a7b565b5b6000611f9685828601611cc8565b9250506020611fa785828601611f5c565b9150509250929050565b600067ffffffffffffffff821115611fcc57611fcb611d7a565b5b611fd582611b86565b9050602081019050919050565b6000611ff5611ff084611fb1565b611dda565b90508281526020810184848401111561201157612010611d75565b5b61201c848285611e26565b509392505050565b600082601f83011261203957612038611d70565b5b8135612049848260208601611fe2565b91505092915050565b6000806000806080858703121561206c5761206b611a7b565b5b600061207a87828801611cc8565b945050602061208b87828801611cc8565b935050604061209c87828801611c13565b925050606085013567ffffffffffffffff8111156120bd576120bc611a80565b5b6120c987828801612024565b91505092959194509250565b600080604083850312156120ec576120eb611a7b565b5b60006120fa85828601611cc8565b925050602061210b85828601611cc8565b9150509250929050565b7f4e487b7100000000000000000000000000000000000000000000000000000000600052602260045260246000fd5b6000600282049050600182168061215c57607f821691505b60208210810361216f5761216e612115565b5b50919050565b7f4552433732313a20617070726f76616c20746f2063757272656e74206f776e6560008201527f7200000000000000000000000000000000000000000000000000000000000000602082015250565b60006121d1602183611b4b565b91506121dc82612175565b604082019050919050565b60006020820190508181036000830152612200816121c4565b9050919050565b7f4552433732313a20617070726f76652063616c6c6572206973206e6f7420746f60008201527f6b656e206f776e6572206f7220617070726f76656420666f7220616c6c000000602082015250565b6000612263603d83611b4b565b915061226e82612207565b604082019050919050565b6000602082019050818103600083015261229281612256565b9050919050565b7f4552433732313a2063616c6c6572206973206e6f7420746f6b656e206f776e6560008201527f72206f7220617070726f76656400000000000000000000000000000000000000602082015250565b60006122f5602d83611b4b565b915061230082612299565b604082019050919050565b60006020820190508181036000830152612324816122e8565b9050919050565b7f4e487b7100000000000000000000000000000000000000000000000000000000600052601160045260246000fd5b600061236582611bf2565b915061237083611bf2565b92508282019050808211156123885761238761232b565b5b92915050565b7f4552433732313a20696e76616c696420746f6b656e2049440000000000000000600082015250565b60006123c4601883611b4b565b91506123cf8261238e565b602082019050919050565b600060208201905081810360008301526123f3816123b7565b9050919050565b7f4552433732313a2061646472657373207a65726f206973206e6f74206120766160008201527f6c6964206f776e65720000000000000000000000000000000000000000000000602082015250565b6000612456602983611b4b565b9150612461826123fa565b604082019050919050565b6000602082019050818103600083015261248581612449565b9050919050565b600081905092915050565b60006124a282611b40565b6124ac818561248c565b93506124bc818560208601611b5c565b80840191505092915050565b60006124d48285612497565b91506124e08284612497565b91508190509392505050565b7f4552433732313a207472616e736665722066726f6d20696e636f72726563742060008201527f6f776e6572000000000000000000000000000000000000000000000000000000602082015250565b6000612548602583611b4b565b9150612553826124ec565b604082019050919050565b600060208201905081810360008301526125778161253b565b9050919050565b7f4552433732313a207472616e7366657220746f20746865207a65726f2061646460008201527f7265737300000000000000000000000000000000000000000000000000000000602082015250565b60006125da602483611b4b565b91506125e58261257e565b604082019050919050565b60006020820190508181036000830152612609816125cd565b9050919050565b7f45524337323155524953746f726167653a2055524920736574206f66206e6f6e60008201527f6578697374656e7420746f6b656e000000000000000000000000000000000000602082015250565b600061266c602e83611b4b565b915061267782612610565b604082019050919050565b6000602082019050818103600083015261269b8161265f565b9050919050565b60008190508160005260206000209050919050565b60006020601f8301049050919050565b600082821b905092915050565b6000600883026127047fffffffffffffffffffffffffffffffffffffffffffffffffffffffffffffffff826126c7565b61270e86836126c7565b95508019841693508086168417925050509392505050565b6000819050919050565b600061274b61274661274184611bf2565b612726565b611bf2565b9050919050565b6000819050919050565b61276583612730565b61277961277182612752565b8484546126d4565b825550505050565b600090565b61278e612781565b61279981848461275c565b505050565b5b818110156127bd576127b2600082612786565b60018101905061279f565b5050565b601f821115612802576127d3816126a2565b6127dc846126b7565b810160208510156127eb578190505b6127ff6127f7856126b7565b83018261279e565b50505b505050565b600082821c905092915050565b600061282560001984600802612807565b1980831691505092915050565b600061283e8383612814565b9150826002028217905092915050565b61285782611b40565b67ffffffffffffffff8111156128705761286f611d7a565b5b61287a8254612144565b6128858282856127c1565b600060209050601f8311600181146128b857600084156128a6578287015190505b6128b08582612832565b865550612918565b601f1984166128c6866126a2565b60005b828110156128ee578489015182556001820191506020850194506020810190506128c9565b8683101561290b5784890151612907601f891682612814565b8355505b6001600288020188555050505b505050505050565b7f4552433732313a20617070726f766520746f2063616c6c657200000000000000600082015250565b6000612956601983611b4b565b915061296182612920565b602082019050919050565b6000602082019050818103600083015261298581612949565b9050919050565b7f4552433732313a207472616e7366657220746f206e6f6e20455243373231526560008201527f63656976657220696d706c656d656e7465720000000000000000000000000000602082015250565b60006129e8603283611b4b565b91506129f38261298c565b604082019050919050565b60006020820190508181036000830152612a17816129db565b9050919050565b6000612a2982611bf2565b9150612a3483611bf2565b9250828203905081811115612a4c57612a4b61232b565b5b92915050565b600081519050919050565b600082825260208201905092915050565b6000612a7982612a52565b612a838185612a5d565b9350612a93818560208601611b5c565b612a9c81611b86565b840191505092915050565b6000608082019050612abc6000830187611c87565b612ac96020830186611c87565b612ad66040830185611eee565b8181036060830152612ae88184612a6e565b905095945050505050565b600081519050612b0281611ab1565b92915050565b600060208284031215612b1e57612b1d611a7b565b5b6000612b2c84828501612af3565b91505092915050565b7f4e487b7100000000000000000000000000000000000000000000000000000000600052601260045260246000fd5b7f4552433732313a206d696e7420746f20746865207a65726f2061646472657373600082015250565b6000612b9a602083611b4b565b9150612ba582612b64565b602082019050919050565b60006020820190508181036000830152612bc981612b8d565b9050919050565b7f4552433732313a20746f6b656e20616c7265616479206d696e74656400000000600082015250565b6000612c06601c83611b4b565b9150612c1182612bd0565b602082019050919050565b60006020820190508181036000830152612c3581612bf9565b905091905056fea2646970667358221220f5399a4bf1fd1214b84936e349790fb3e4c8ec944a6d7e03f763e8590971faa264736f6c63430008120033",
  "immutableReferences": {},
  "source": "pragma solidity ^0.8;\n\nimport \"@openzeppelin/contracts/token/ERC721/extensions/ERC721URIStorage.sol\";\n\ncontract Fantom721Collection is ERC721URIStorage {\n    uint256 public tokenCounter;\n    constructor () public ERC721 (\"COLLECTION_NAME\", \"COLLECTION_TICKER\"){\n        tokenCounter = 0;\n    }\n\n    function createCollectible(string memory tokenURI) public returns (uint256) {\n        uint256 newItemId = tokenCounter;\n        _safeMint(msg.sender, newItemId);\n        _setTokenURI(newItemId, tokenURI);\n        tokenCounter = tokenCounter + 1;\n        return newItemId;\n    }\n\n}",
  "sourcePath": "/Users/fuqixuan/Documents/vscode/BlockChain/nft-marketplace/contracts/NftMarket.sol",
  "compiler": {
    "name": "solc",
    "version": "0.8.18+commit.87f61d96.Emscripten.clang"
  },
  "schemaVersion": "3.4.12",
  "updatedAt": "2023-02-22T04:29:37.691Z",
  "networkType": "ethereum",
  "devdoc": {
    "events": {
      "Approval(address,address,uint256)": {
        "details": "Emitted when `owner` enables `approved` to manage the `tokenId` token."
      },
      "ApprovalForAll(address,address,bool)": {
        "details": "Emitted when `owner` enables or disables (`approved`) `operator` to manage all of its assets."
      },
      "Transfer(address,address,uint256)": {
        "details": "Emitted when `tokenId` token is transferred from `from` to `to`."
      }
    },
    "kind": "dev",
    "methods": {
      "approve(address,uint256)": {
        "details": "See {IERC721-approve}."
      },
      "balanceOf(address)": {
        "details": "See {IERC721-balanceOf}."
      },
      "getApproved(uint256)": {
        "details": "See {IERC721-getApproved}."
      },
      "isApprovedForAll(address,address)": {
        "details": "See {IERC721-isApprovedForAll}."
      },
      "name()": {
        "details": "See {IERC721Metadata-name}."
      },
      "ownerOf(uint256)": {
        "details": "See {IERC721-ownerOf}."
      },
      "safeTransferFrom(address,address,uint256)": {
        "details": "See {IERC721-safeTransferFrom}."
      },
      "safeTransferFrom(address,address,uint256,bytes)": {
        "details": "See {IERC721-safeTransferFrom}."
      },
      "setApprovalForAll(address,bool)": {
        "details": "See {IERC721-setApprovalForAll}."
      },
      "supportsInterface(bytes4)": {
        "details": "See {IERC165-supportsInterface}."
      },
      "symbol()": {
        "details": "See {IERC721Metadata-symbol}."
      },
      "tokenURI(uint256)": {
        "details": "See {IERC721Metadata-tokenURI}."
      },
      "transferFrom(address,address,uint256)": {
        "details": "See {IERC721-transferFrom}."
      }
    },
    "version": 1
  },
  "userdoc": {
    "kind": "user",
    "methods": {},
    "version": 1
  }
}