{
  "contractName": "NftMarket",
  "abi": [
    {
      "inputs": [],
      "stateMutability": "nonpayable",
      "type": "constructor"
    },
    {
      "anonymous": false,
      "inputs": [
        {
          "indexed": true,
          "internalType": "address",
          "name": "owner",
          "type": "address"
        },
        {
          "indexed": true,
          "internalType": "address",
          "name": "approved",
          "type": "address"
        },
        {
          "indexed": true,
          "internalType": "uint256",
          "name": "tokenId",
          "type": "uint256"
        }
      ],
      "name": "Approval",
      "type": "event"
    },
    {
      "anonymous": false,
      "inputs": [
        {
          "indexed": true,
          "internalType": "address",
          "name": "owner",
          "type": "address"
        },
        {
          "indexed": true,
          "internalType": "address",
          "name": "operator",
          "type": "address"
        },
        {
          "indexed": false,
          "internalType": "bool",
          "name": "approved",
          "type": "bool"
        }
      ],
      "name": "ApprovalForAll",
      "type": "event"
    },
    {
      "anonymous": false,
      "inputs": [
        {
          "indexed": false,
          "internalType": "uint256",
          "name": "tokenId",
          "type": "uint256"
        },
        {
          "indexed": false,
          "internalType": "uint256",
          "name": "price",
          "type": "uint256"
        },
        {
          "indexed": false,
          "internalType": "address",
          "name": "creator",
          "type": "address"
        },
        {
          "indexed": false,
          "internalType": "bool",
          "name": "isListed",
          "type": "bool"
        }
      ],
      "name": "NftItemCreated",
      "type": "event"
    },
    {
      "anonymous": false,
      "inputs": [
        {
          "indexed": true,
          "internalType": "address",
          "name": "previousOwner",
          "type": "address"
        },
        {
          "indexed": true,
          "internalType": "address",
          "name": "newOwner",
          "type": "address"
        }
      ],
      "name": "OwnershipTransferred",
      "type": "event"
    },
    {
      "anonymous": false,
      "inputs": [
        {
          "indexed": true,
          "internalType": "address",
          "name": "from",
          "type": "address"
        },
        {
          "indexed": true,
          "internalType": "address",
          "name": "to",
          "type": "address"
        },
        {
          "indexed": true,
          "internalType": "uint256",
          "name": "tokenId",
          "type": "uint256"
        }
      ],
      "name": "Transfer",
      "type": "event"
    },
    {
      "inputs": [
        {
          "internalType": "address",
          "name": "to",
          "type": "address"
        },
        {
          "internalType": "uint256",
          "name": "tokenId",
          "type": "uint256"
        }
      ],
      "name": "approve",
      "outputs": [],
      "stateMutability": "nonpayable",
      "type": "function"
    },
    {
      "inputs": [
        {
          "internalType": "address",
          "name": "owner",
          "type": "address"
        }
      ],
      "name": "balanceOf",
      "outputs": [
        {
          "internalType": "uint256",
          "name": "",
          "type": "uint256"
        }
      ],
      "stateMutability": "view",
      "type": "function",
      "constant": true
    },
    {
      "inputs": [
        {
          "internalType": "uint256",
          "name": "tokenId",
          "type": "uint256"
        }
      ],
      "name": "getApproved",
      "outputs": [
        {
          "internalType": "address",
          "name": "",
          "type": "address"
        }
      ],
      "stateMutability": "view",
      "type": "function",
      "constant": true
    },
    {
      "inputs": [
        {
          "internalType": "address",
          "name": "owner",
          "type": "address"
        },
        {
          "internalType": "address",
          "name": "operator",
          "type": "address"
        }
      ],
      "name": "isApprovedForAll",
      "outputs": [
        {
          "internalType": "bool",
          "name": "",
          "type": "bool"
        }
      ],
      "stateMutability": "view",
      "type": "function",
      "constant": true
    },
    {
      "inputs": [],
      "name": "listingPrice",
      "outputs": [
        {
          "internalType": "uint256",
          "name": "",
          "type": "uint256"
        }
      ],
      "stateMutability": "view",
      "type": "function",
      "constant": true
    },
    {
      "inputs": [],
      "name": "name",
      "outputs": [
        {
          "internalType": "string",
          "name": "",
          "type": "string"
        }
      ],
      "stateMutability": "view",
      "type": "function",
      "constant": true
    },
    {
      "inputs": [],
      "name": "owner",
      "outputs": [
        {
          "internalType": "address",
          "name": "",
          "type": "address"
        }
      ],
      "stateMutability": "view",
      "type": "function",
      "constant": true
    },
    {
      "inputs": [
        {
          "internalType": "uint256",
          "name": "tokenId",
          "type": "uint256"
        }
      ],
      "name": "ownerOf",
      "outputs": [
        {
          "internalType": "address",
          "name": "",
          "type": "address"
        }
      ],
      "stateMutability": "view",
      "type": "function",
      "constant": true
    },
    {
      "inputs": [],
      "name": "renounceOwnership",
      "outputs": [],
      "stateMutability": "nonpayable",
      "type": "function"
    },
    {
      "inputs": [
        {
          "internalType": "address",
          "name": "from",
          "type": "address"
        },
        {
          "internalType": "address",
          "name": "to",
          "type": "address"
        },
        {
          "internalType": "uint256",
          "name": "tokenId",
          "type": "uint256"
        }
      ],
      "name": "safeTransferFrom",
      "outputs": [],
      "stateMutability": "nonpayable",
      "type": "function"
    },
    {
      "inputs": [
        {
          "internalType": "address",
          "name": "from",
          "type": "address"
        },
        {
          "internalType": "address",
          "name": "to",
          "type": "address"
        },
        {
          "internalType": "uint256",
          "name": "tokenId",
          "type": "uint256"
        },
        {
          "internalType": "bytes",
          "name": "data",
          "type": "bytes"
        }
      ],
      "name": "safeTransferFrom",
      "outputs": [],
      "stateMutability": "nonpayable",
      "type": "function"
    },
    {
      "inputs": [
        {
          "internalType": "address",
          "name": "operator",
          "type": "address"
        },
        {
          "internalType": "bool",
          "name": "approved",
          "type": "bool"
        }
      ],
      "name": "setApprovalForAll",
      "outputs": [],
      "stateMutability": "nonpayable",
      "type": "function"
    },
    {
      "inputs": [
        {
          "internalType": "bytes4",
          "name": "interfaceId",
          "type": "bytes4"
        }
      ],
      "name": "supportsInterface",
      "outputs": [
        {
          "internalType": "bool",
          "name": "",
          "type": "bool"
        }
      ],
      "stateMutability": "view",
      "type": "function",
      "constant": true
    },
    {
      "inputs": [],
      "name": "symbol",
      "outputs": [
        {
          "internalType": "string",
          "name": "",
          "type": "string"
        }
      ],
      "stateMutability": "view",
      "type": "function",
      "constant": true
    },
    {
      "inputs": [
        {
          "internalType": "uint256",
          "name": "tokenId",
          "type": "uint256"
        }
      ],
      "name": "tokenURI",
      "outputs": [
        {
          "internalType": "string",
          "name": "",
          "type": "string"
        }
      ],
      "stateMutability": "view",
      "type": "function",
      "constant": true
    },
    {
      "inputs": [
        {
          "internalType": "address",
          "name": "from",
          "type": "address"
        },
        {
          "internalType": "address",
          "name": "to",
          "type": "address"
        },
        {
          "internalType": "uint256",
          "name": "tokenId",
          "type": "uint256"
        }
      ],
      "name": "transferFrom",
      "outputs": [],
      "stateMutability": "nonpayable",
      "type": "function"
    },
    {
      "inputs": [
        {
          "internalType": "address",
          "name": "newOwner",
          "type": "address"
        }
      ],
      "name": "transferOwnership",
      "outputs": [],
      "stateMutability": "nonpayable",
      "type": "function"
    },
    {
      "inputs": [
        {
          "internalType": "uint256",
          "name": "newPrice",
          "type": "uint256"
        }
      ],
      "name": "setListingPrice",
      "outputs": [],
      "stateMutability": "nonpayable",
      "type": "function"
    },
    {
      "inputs": [
        {
          "internalType": "string",
          "name": "tokenURI",
          "type": "string"
        }
      ],
      "name": "tokenURIExists",
      "outputs": [
        {
          "internalType": "bool",
          "name": "",
          "type": "bool"
        }
      ],
      "stateMutability": "view",
      "type": "function",
      "constant": true
    },
    {
      "inputs": [
        {
          "internalType": "uint256",
          "name": "tokenId",
          "type": "uint256"
        }
      ],
      "name": "getNftItem",
      "outputs": [
        {
          "components": [
            {
              "internalType": "uint256",
              "name": "tokenId",
              "type": "uint256"
            },
            {
              "internalType": "uint256",
              "name": "price",
              "type": "uint256"
            },
            {
              "internalType": "address",
              "name": "creator",
              "type": "address"
            },
            {
              "internalType": "bool",
              "name": "isListed",
              "type": "bool"
            }
          ],
          "internalType": "struct NftMarket.NftItem",
          "name": "",
          "type": "tuple"
        }
      ],
      "stateMutability": "view",
      "type": "function",
      "constant": true
    },
    {
      "inputs": [],
      "name": "listedItemsCount",
      "outputs": [
        {
          "internalType": "uint256",
          "name": "",
          "type": "uint256"
        }
      ],
      "stateMutability": "view",
      "type": "function",
      "constant": true
    },
    {
      "inputs": [],
      "name": "totalSupply",
      "outputs": [
        {
          "internalType": "uint256",
          "name": "",
          "type": "uint256"
        }
      ],
      "stateMutability": "view",
      "type": "function",
      "constant": true
    },
    {
      "inputs": [
        {
          "internalType": "uint256",
          "name": "index",
          "type": "uint256"
        }
      ],
      "name": "tokenByIndex",
      "outputs": [
        {
          "internalType": "uint256",
          "name": "",
          "type": "uint256"
        }
      ],
      "stateMutability": "view",
      "type": "function",
      "constant": true
    },
    {
      "inputs": [],
      "name": "getAllNftsOnSale",
      "outputs": [
        {
          "components": [
            {
              "internalType": "uint256",
              "name": "tokenId",
              "type": "uint256"
            },
            {
              "internalType": "uint256",
              "name": "price",
              "type": "uint256"
            },
            {
              "internalType": "address",
              "name": "creator",
              "type": "address"
            },
            {
              "internalType": "bool",
              "name": "isListed",
              "type": "bool"
            }
          ],
          "internalType": "struct NftMarket.NftItem[]",
          "name": "",
          "type": "tuple[]"
        }
      ],
      "stateMutability": "view",
      "type": "function",
      "constant": true
    },
    {
      "inputs": [
        {
          "internalType": "address",
          "name": "owner",
          "type": "address"
        },
        {
          "internalType": "uint256",
          "name": "index",
          "type": "uint256"
        }
      ],
      "name": "tokenOfOwnerByIndex",
      "outputs": [
        {
          "internalType": "uint256",
          "name": "",
          "type": "uint256"
        }
      ],
      "stateMutability": "view",
      "type": "function",
      "constant": true
    },
    {
      "inputs": [],
      "name": "getOwnedNfts",
      "outputs": [
        {
          "components": [
            {
              "internalType": "uint256",
              "name": "tokenId",
              "type": "uint256"
            },
            {
              "internalType": "uint256",
              "name": "price",
              "type": "uint256"
            },
            {
              "internalType": "address",
              "name": "creator",
              "type": "address"
            },
            {
              "internalType": "bool",
              "name": "isListed",
              "type": "bool"
            }
          ],
          "internalType": "struct NftMarket.NftItem[]",
          "name": "",
          "type": "tuple[]"
        }
      ],
      "stateMutability": "view",
      "type": "function",
      "constant": true
    },
    {
      "inputs": [
        {
          "internalType": "string",
          "name": "tokenURI",
          "type": "string"
        },
        {
          "internalType": "uint256",
          "name": "price",
          "type": "uint256"
        }
      ],
      "name": "mintToken",
      "outputs": [
        {
          "internalType": "uint256",
          "name": "",
          "type": "uint256"
        }
      ],
      "stateMutability": "payable",
      "type": "function",
      "payable": true
    },
    {
      "inputs": [
        {
          "internalType": "uint256",
          "name": "tokenId",
          "type": "uint256"
        }
      ],
      "name": "buyNft",
      "outputs": [],
      "stateMutability": "payable",
      "type": "function",
      "payable": true
    },
    {
      "inputs": [
        {
          "internalType": "uint256",
          "name": "tokenId",
          "type": "uint256"
        },
        {
          "internalType": "uint256",
          "name": "newPrice",
          "type": "uint256"
        }
      ],
      "name": "placeNftOnSale",
      "outputs": [],
      "stateMutability": "payable",
      "type": "function",
      "payable": true
    },
    {
      "inputs": [
        {
          "internalType": "uint256",
          "name": "tokenId",
          "type": "uint256"
        }
      ],
      "name": "burnToken",
      "outputs": [],
      "stateMutability": "nonpayable",
      "type": "function"
    }
  ],
  "bytecode": "0x60806040526608e1bc9bf040006010553480156200001c57600080fd5b506040518060400160405280600c81526020017f4372656174757265734e465400000000000000000000000000000000000000008152506040518060400160405280600481526020017f434e46540000000000000000000000000000000000000000000000000000000081525081600090816200009a91906200041d565b508060019081620000ac91906200041d565b505050620000cf620000c3620000d560201b60201c565b620000dd60201b60201c565b62000504565b600033905090565b6000600760009054906101000a900473ffffffffffffffffffffffffffffffffffffffff16905081600760006101000a81548173ffffffffffffffffffffffffffffffffffffffff021916908373ffffffffffffffffffffffffffffffffffffffff1602179055508173ffffffffffffffffffffffffffffffffffffffff168173ffffffffffffffffffffffffffffffffffffffff167f8be0079c531659141344cd1fd0a4f28419497f9722a3daafe3b4186f6b6457e060405160405180910390a35050565b600081519050919050565b7f4e487b7100000000000000000000000000000000000000000000000000000000600052604160045260246000fd5b7f4e487b7100000000000000000000000000000000000000000000000000000000600052602260045260246000fd5b600060028204905060018216806200022557607f821691505b6020821081036200023b576200023a620001dd565b5b50919050565b60008190508160005260206000209050919050565b60006020601f8301049050919050565b600082821b905092915050565b600060088302620002a57fffffffffffffffffffffffffffffffffffffffffffffffffffffffffffffffff8262000266565b620002b1868362000266565b95508019841693508086168417925050509392505050565b6000819050919050565b6000819050919050565b6000620002fe620002f8620002f284620002c9565b620002d3565b620002c9565b9050919050565b6000819050919050565b6200031a83620002dd565b62000332620003298262000305565b84845462000273565b825550505050565b600090565b620003496200033a565b620003568184846200030f565b505050565b5b818110156200037e57620003726000826200033f565b6001810190506200035c565b5050565b601f821115620003cd57620003978162000241565b620003a28462000256565b81016020851015620003b2578190505b620003ca620003c18562000256565b8301826200035b565b50505b505050565b600082821c905092915050565b6000620003f260001984600802620003d2565b1980831691505092915050565b60006200040d8383620003df565b9150826002028217905092915050565b6200042882620001a3565b67ffffffffffffffff811115620004445762000443620001ae565b5b6200045082546200020c565b6200045d82828562000382565b600060209050601f83116001811462000495576000841562000480578287015190505b6200048c8582620003ff565b865550620004fc565b601f198416620004a58662000241565b60005b82811015620004cf57848901518255600182019150602085019450602081019050620004a8565b86831015620004ef5784890151620004eb601f891682620003df565b8355505b6001600288020188555050505b505050505050565b614d7180620005146000396000f3fe6080604052600436106101cd5760003560e01c806370a08231116100f7578063a22cb46511610095578063c87b56dd11610064578063c87b56dd14610685578063ccb4918d146106c2578063e985e9c5146106ed578063f2fde38b1461072a576101cd565b8063a22cb465146105d8578063b88d4fde14610601578063c046372c1461062a578063c78f19f91461065a576101cd565b80637b47ec1a116100d15780637b47ec1a146105305780637c726b69146105595780638da5cb5b1461058257806395d89b41146105ad576101cd565b806370a08231146104b157806370cbcb43146104ee578063715018a614610519576101cd565b8063243adbdd1161016f57806343d32ae71161013e57806343d32ae7146103bd5780634f6ccce7146103fa5780636352211e146104375780636f1a0af514610474576101cd565b8063243adbdd146103105780632f745c591461032c57806336b536be1461036957806342842e0e14610394576101cd565b8063095ea7b3116101ab578063095ea7b31461027757806318160ddd146102a057806321f422e5146102cb57806323b872dd146102e7576101cd565b806301ffc9a7146101d257806306fdde031461020f578063081812fc1461023a575b600080fd5b3480156101de57600080fd5b506101f960048036038101906101f49190613221565b610753565b6040516102069190613269565b60405180910390f35b34801561021b57600080fd5b50610224610835565b6040516102319190613314565b60405180910390f35b34801561024657600080fd5b50610261600480360381019061025c919061336c565b6108c7565b60405161026e91906133da565b60405180910390f35b34801561028357600080fd5b5061029e60048036038101906102999190613421565b61090d565b005b3480156102ac57600080fd5b506102b5610a24565b6040516102c29190613470565b60405180910390f35b6102e560048036038101906102e0919061348b565b610a31565b005b3480156102f357600080fd5b5061030e600480360381019061030991906134cb565b610bad565b005b61032a6004803603810190610325919061336c565b610c0d565b005b34801561033857600080fd5b50610353600480360381019061034e9190613421565b610d2e565b6040516103609190613470565b60405180910390f35b34801561037557600080fd5b5061037e610dd3565b60405161038b919061364f565b60405180910390f35b3480156103a057600080fd5b506103bb60048036038101906103b691906134cb565b610f6d565b005b3480156103c957600080fd5b506103e460048036038101906103df91906137a6565b610f8d565b6040516103f19190613269565b60405180910390f35b34801561040657600080fd5b50610421600480360381019061041c919061336c565b610fc9565b60405161042e9190613470565b60405180910390f35b34801561044357600080fd5b5061045e6004803603810190610459919061336c565b61103a565b60405161046b91906133da565b60405180910390f35b34801561048057600080fd5b5061049b6004803603810190610496919061336c565b6110c0565b6040516104a89190613844565b60405180910390f35b3480156104bd57600080fd5b506104d860048036038101906104d3919061385f565b611172565b6040516104e59190613470565b60405180910390f35b3480156104fa57600080fd5b50610503611229565b604051610510919061364f565b60405180910390f35b34801561052557600080fd5b5061052e61138d565b005b34801561053c57600080fd5b506105576004803603810190610552919061336c565b6113a1565b005b34801561056557600080fd5b50610580600480360381019061057b919061336c565b6113ad565b005b34801561058e57600080fd5b50610597611402565b6040516105a491906133da565b60405180910390f35b3480156105b957600080fd5b506105c261142c565b6040516105cf9190613314565b60405180910390f35b3480156105e457600080fd5b506105ff60048036038101906105fa91906138b8565b6114be565b005b34801561060d57600080fd5b5061062860048036038101906106239190613999565b6114d4565b005b610644600480360381019061063f9190613a1c565b611536565b6040516106519190613470565b60405180910390f35b34801561066657600080fd5b5061066f611646565b60405161067c9190613470565b60405180910390f35b34801561069157600080fd5b506106ac60048036038101906106a7919061336c565b61164c565b6040516106b99190613314565b60405180910390f35b3480156106ce57600080fd5b506106d761175e565b6040516106e49190613470565b60405180910390f35b3480156106f957600080fd5b50610714600480360381019061070f9190613a78565b61176f565b6040516107219190613269565b60405180910390f35b34801561073657600080fd5b50610751600480360381019061074c919061385f565b611803565b005b60007f80ac58cd000000000000000000000000000000000000000000000000000000007bffffffffffffffffffffffffffffffffffffffffffffffffffffffff1916827bffffffffffffffffffffffffffffffffffffffffffffffffffffffff1916148061081e57507f5b5e139f000000000000000000000000000000000000000000000000000000007bffffffffffffffffffffffffffffffffffffffffffffffffffffffff1916827bffffffffffffffffffffffffffffffffffffffffffffffffffffffff1916145b8061082e575061082d82611886565b5b9050919050565b60606000805461084490613ae7565b80601f016020809104026020016040519081016040528092919081815260200182805461087090613ae7565b80156108bd5780601f10610892576101008083540402835291602001916108bd565b820191906000526020600020905b8154815290600101906020018083116108a057829003601f168201915b5050505050905090565b60006108d2826118f0565b6004600083815260200190815260200160002060009054906101000a900473ffffffffffffffffffffffffffffffffffffffff169050919050565b60006109188261103a565b90508073ffffffffffffffffffffffffffffffffffffffff168373ffffffffffffffffffffffffffffffffffffffff1603610988576040517f08c379a000000000000000000000000000000000000000000000000000000000815260040161097f90613b8a565b60405180910390fd5b8073ffffffffffffffffffffffffffffffffffffffff166109a761193b565b73ffffffffffffffffffffffffffffffffffffffff1614806109d657506109d5816109d061193b565b61176f565b5b610a15576040517f08c379a0000000000000000000000000000000000000000000000000000000008152600401610a0c90613c1c565b60405180910390fd5b610a1f8383611943565b505050565b6000600a80549050905090565b3373ffffffffffffffffffffffffffffffffffffffff16610a518361103a565b73ffffffffffffffffffffffffffffffffffffffff1614610aa7576040517f08c379a0000000000000000000000000000000000000000000000000000000008152600401610a9e90613c88565b60405180910390fd5b60001515600c600084815260200190815260200160002060020160149054906101000a900460ff16151514610b11576040517f08c379a0000000000000000000000000000000000000000000000000000000008152600401610b0890613cf4565b60405180910390fd5b6010543414610b55576040517f08c379a0000000000000000000000000000000000000000000000000000000008152600401610b4c90613d86565b60405180910390fd5b6001600c600084815260200190815260200160002060020160146101000a81548160ff02191690831515021790555080600c600084815260200190815260200160002060010181905550610ba960086119fc565b5050565b610bbe610bb861193b565b82611a12565b610bfd576040517f08c379a0000000000000000000000000000000000000000000000000000000008152600401610bf490613e18565b60405180910390fd5b610c08838383611aa7565b505050565b6000600c60008381526020019081526020016000206001015490506000610c338361103a565b90508073ffffffffffffffffffffffffffffffffffffffff163373ffffffffffffffffffffffffffffffffffffffff1603610ca3576040517f08c379a0000000000000000000000000000000000000000000000000000000008152600401610c9a90613e84565b60405180910390fd5b813414610ce5576040517f08c379a0000000000000000000000000000000000000000000000000000000008152600401610cdc90613ef0565b60405180910390fd5b6000600c600085815260200190815260200160002060020160146101000a81548160ff021916908315150217905550610d1e6008611da0565b610d29813385611aa7565b505050565b6000610d3983611172565b8210610d7a576040517f08c379a0000000000000000000000000000000000000000000000000000000008152600401610d7190613f5c565b60405180910390fd5b600d60008473ffffffffffffffffffffffffffffffffffffffff1673ffffffffffffffffffffffffffffffffffffffff168152602001908152602001600020600083815260200190815260200160002054905092915050565b60606000610ddf610a24565b9050600080610dee6008611dfc565b67ffffffffffffffff811115610e0757610e0661367b565b5b604051908082528060200260200182016040528015610e4057816020015b610e2d613118565b815260200190600190039081610e255790505b50905060005b83811015610f63576000610e5982610fc9565b90506000600c60008381526020019081526020016000209050600115158160020160149054906101000a900460ff16151503610f4e578060405180608001604052908160008201548152602001600182015481526020016002820160009054906101000a900473ffffffffffffffffffffffffffffffffffffffff1673ffffffffffffffffffffffffffffffffffffffff1673ffffffffffffffffffffffffffffffffffffffff1681526020016002820160149054906101000a900460ff161515151581525050848681518110610f3357610f32613f7c565b5b6020026020010181905250600185610f4b9190613fda565b94505b50508080610f5b9061400e565b915050610e46565b5080935050505090565b610f88838383604051806020016040528060008152506114d4565b505050565b600060011515600b83604051610fa39190614092565b908152602001604051809103902060009054906101000a900460ff161515149050919050565b6000610fd3610a24565b8210611014576040517f08c379a000000000000000000000000000000000000000000000000000000000815260040161100b906140f5565b60405180910390fd5b600a828154811061102857611027613f7c565b5b90600052602060002001549050919050565b60008061104683611e0a565b9050600073ffffffffffffffffffffffffffffffffffffffff168173ffffffffffffffffffffffffffffffffffffffff16036110b7576040517f08c379a00000000000000000000000000000000000000000000000000000000081526004016110ae90614161565b60405180910390fd5b80915050919050565b6110c8613118565b600c600083815260200190815260200160002060405180608001604052908160008201548152602001600182015481526020016002820160009054906101000a900473ffffffffffffffffffffffffffffffffffffffff1673ffffffffffffffffffffffffffffffffffffffff1673ffffffffffffffffffffffffffffffffffffffff1681526020016002820160149054906101000a900460ff1615151515815250509050919050565b60008073ffffffffffffffffffffffffffffffffffffffff168273ffffffffffffffffffffffffffffffffffffffff16036111e2576040517f08c379a00000000000000000000000000000000000000000000000000000000081526004016111d9906141f3565b60405180910390fd5b600360008373ffffffffffffffffffffffffffffffffffffffff1673ffffffffffffffffffffffffffffffffffffffff168152602001908152602001600020549050919050565b6060600061123633611172565b905060008167ffffffffffffffff8111156112545761125361367b565b5b60405190808252806020026020018201604052801561128d57816020015b61127a613118565b8152602001906001900390816112725790505b50905060005b828110156113845760006112a73383610d2e565b90506000600c600083815260200190815260200160002090508060405180608001604052908160008201548152602001600182015481526020016002820160009054906101000a900473ffffffffffffffffffffffffffffffffffffffff1673ffffffffffffffffffffffffffffffffffffffff1673ffffffffffffffffffffffffffffffffffffffff1681526020016002820160149054906101000a900460ff16151515158152505084848151811061136457611363613f7c565b5b60200260200101819052505050808061137c9061400e565b915050611293565b50809250505090565b611395611e47565b61139f6000611ec5565b565b6113aa81611f8b565b50565b6113b5611e47565b600081116113f8576040517f08c379a00000000000000000000000000000000000000000000000000000000081526004016113ef9061425f565b60405180910390fd5b8060108190555050565b6000600760009054906101000a900473ffffffffffffffffffffffffffffffffffffffff16905090565b60606001805461143b90613ae7565b80601f016020809104026020016040519081016040528092919081815260200182805461146790613ae7565b80156114b45780601f10611489576101008083540402835291602001916114b4565b820191906000526020600020905b81548152906001019060200180831161149757829003601f168201915b5050505050905090565b6114d06114c961193b565b8383611fde565b5050565b6114e56114df61193b565b83611a12565b611524576040517f08c379a000000000000000000000000000000000000000000000000000000000815260040161151b90613e18565b60405180910390fd5b6115308484848461214a565b50505050565b600061154183610f8d565b15611581576040517f08c379a0000000000000000000000000000000000000000000000000000000008152600401611578906142cb565b60405180910390fd5b60105434146115c5576040517f08c379a00000000000000000000000000000000000000000000000000000000081526004016115bc9061435d565b60405180910390fd5b6115cf60096119fc565b6115d960086119fc565b60006115e56009611dfc565b90506115f133826121a6565b6115fb81856121c4565b6116058184612231565b6001600b856040516116179190614092565b908152602001604051809103902060006101000a81548160ff0219169083151502179055508091505092915050565b60105481565b6060611657826118f0565b600060066000848152602001908152602001600020805461167790613ae7565b80601f01602080910402602001604051908101604052809291908181526020018280546116a390613ae7565b80156116f05780601f106116c5576101008083540402835291602001916116f0565b820191906000526020600020905b8154815290600101906020018083116116d357829003601f168201915b505050505090506000611701612381565b90506000815103611716578192505050611759565b60008251111561174b57808260405160200161173392919061437d565b60405160208183030381529060405292505050611759565b61175484612398565b925050505b919050565b600061176a6008611dfc565b905090565b6000600560008473ffffffffffffffffffffffffffffffffffffffff1673ffffffffffffffffffffffffffffffffffffffff16815260200190815260200160002060008373ffffffffffffffffffffffffffffffffffffffff1673ffffffffffffffffffffffffffffffffffffffff16815260200190815260200160002060009054906101000a900460ff16905092915050565b61180b611e47565b600073ffffffffffffffffffffffffffffffffffffffff168173ffffffffffffffffffffffffffffffffffffffff160361187a576040517f08c379a000000000000000000000000000000000000000000000000000000000815260040161187190614413565b60405180910390fd5b61188381611ec5565b50565b60007f01ffc9a7000000000000000000000000000000000000000000000000000000007bffffffffffffffffffffffffffffffffffffffffffffffffffffffff1916827bffffffffffffffffffffffffffffffffffffffffffffffffffffffff1916149050919050565b6118f981612400565b611938576040517f08c379a000000000000000000000000000000000000000000000000000000000815260040161192f90614161565b60405180910390fd5b50565b600033905090565b816004600083815260200190815260200160002060006101000a81548173ffffffffffffffffffffffffffffffffffffffff021916908373ffffffffffffffffffffffffffffffffffffffff160217905550808273ffffffffffffffffffffffffffffffffffffffff166119b68361103a565b73ffffffffffffffffffffffffffffffffffffffff167f8c5be1e5ebec7d5bd14f71427d1e84f3dd0314c0f7b2291e5b200ac8c7c3b92560405160405180910390a45050565b6001816000016000828254019250508190555050565b600080611a1e8361103a565b90508073ffffffffffffffffffffffffffffffffffffffff168473ffffffffffffffffffffffffffffffffffffffff161480611a605750611a5f818561176f565b5b80611a9e57508373ffffffffffffffffffffffffffffffffffffffff16611a86846108c7565b73ffffffffffffffffffffffffffffffffffffffff16145b91505092915050565b8273ffffffffffffffffffffffffffffffffffffffff16611ac78261103a565b73ffffffffffffffffffffffffffffffffffffffff1614611b1d576040517f08c379a0000000000000000000000000000000000000000000000000000000008152600401611b14906144a5565b60405180910390fd5b600073ffffffffffffffffffffffffffffffffffffffff168273ffffffffffffffffffffffffffffffffffffffff1603611b8c576040517f08c379a0000000000000000000000000000000000000000000000000000000008152600401611b8390614537565b60405180910390fd5b611b998383836001612441565b8273ffffffffffffffffffffffffffffffffffffffff16611bb98261103a565b73ffffffffffffffffffffffffffffffffffffffff1614611c0f576040517f08c379a0000000000000000000000000000000000000000000000000000000008152600401611c06906144a5565b60405180910390fd5b6004600082815260200190815260200160002060006101000a81549073ffffffffffffffffffffffffffffffffffffffff02191690556001600360008573ffffffffffffffffffffffffffffffffffffffff1673ffffffffffffffffffffffffffffffffffffffff168152602001908152602001600020600082825403925050819055506001600360008473ffffffffffffffffffffffffffffffffffffffff1673ffffffffffffffffffffffffffffffffffffffff16815260200190815260200160002060008282540192505081905550816002600083815260200190815260200160002060006101000a81548173ffffffffffffffffffffffffffffffffffffffff021916908373ffffffffffffffffffffffffffffffffffffffff160217905550808273ffffffffffffffffffffffffffffffffffffffff168473ffffffffffffffffffffffffffffffffffffffff167fddf252ad1be2c89b69c2b068fc378daa952ba7f163c4a11628f55a4df523b3ef60405160405180910390a4611d9b8383836001612555565b505050565b60008160000154905060008111611dec576040517f08c379a0000000000000000000000000000000000000000000000000000000008152600401611de3906145a3565b60405180910390fd5b6001810382600001819055505050565b600081600001549050919050565b60006002600083815260200190815260200160002060009054906101000a900473ffffffffffffffffffffffffffffffffffffffff169050919050565b611e4f61193b565b73ffffffffffffffffffffffffffffffffffffffff16611e6d611402565b73ffffffffffffffffffffffffffffffffffffffff1614611ec3576040517f08c379a0000000000000000000000000000000000000000000000000000000008152600401611eba9061460f565b60405180910390fd5b565b6000600760009054906101000a900473ffffffffffffffffffffffffffffffffffffffff16905081600760006101000a81548173ffffffffffffffffffffffffffffffffffffffff021916908373ffffffffffffffffffffffffffffffffffffffff1602179055508173ffffffffffffffffffffffffffffffffffffffff168173ffffffffffffffffffffffffffffffffffffffff167f8be0079c531659141344cd1fd0a4f28419497f9722a3daafe3b4186f6b6457e060405160405180910390a35050565b611f948161255b565b6000600660008381526020019081526020016000208054611fb490613ae7565b905014611fdb57600660008281526020019081526020016000206000611fda9190613158565b5b50565b8173ffffffffffffffffffffffffffffffffffffffff168373ffffffffffffffffffffffffffffffffffffffff160361204c576040517f08c379a00000000000000000000000000000000000000000000000000000000081526004016120439061467b565b60405180910390fd5b80600560008573ffffffffffffffffffffffffffffffffffffffff1673ffffffffffffffffffffffffffffffffffffffff16815260200190815260200160002060008473ffffffffffffffffffffffffffffffffffffffff1673ffffffffffffffffffffffffffffffffffffffff16815260200190815260200160002060006101000a81548160ff0219169083151502179055508173ffffffffffffffffffffffffffffffffffffffff168373ffffffffffffffffffffffffffffffffffffffff167f17307eab39ab6107e8899845ad3d59bd9653f200f220920489ca2b5937696c318360405161213d9190613269565b60405180910390a3505050565b612155848484611aa7565b612161848484846126a9565b6121a0576040517f08c379a00000000000000000000000000000000000000000000000000000000081526004016121979061470d565b60405180910390fd5b50505050565b6121c0828260405180602001604052806000815250612830565b5050565b6121cd82612400565b61220c576040517f08c379a00000000000000000000000000000000000000000000000000000000081526004016122039061479f565b60405180910390fd5b8060066000848152602001908152602001600020908161222c919061496b565b505050565b60008111612274576040517f08c379a000000000000000000000000000000000000000000000000000000000815260040161226b90614a89565b60405180910390fd5b60405180608001604052808381526020018281526020013373ffffffffffffffffffffffffffffffffffffffff16815260200160011515815250600c6000848152602001908152602001600020600082015181600001556020820151816001015560408201518160020160006101000a81548173ffffffffffffffffffffffffffffffffffffffff021916908373ffffffffffffffffffffffffffffffffffffffff16021790555060608201518160020160146101000a81548160ff0219169083151502179055509050507f470031062672bc0246e132c723a729c4676710ec663a29e86c88678032daddea82823360016040516123759493929190614aa9565b60405180910390a15050565b606060405180602001604052806000815250905090565b60606123a3826118f0565b60006123ad612381565b905060008151116123cd57604051806020016040528060008152506123f8565b806123d78461288b565b6040516020016123e892919061437d565b6040516020818303038152906040525b915050919050565b60008073ffffffffffffffffffffffffffffffffffffffff1661242283611e0a565b73ffffffffffffffffffffffffffffffffffffffff1614159050919050565b61244d84848484612959565b600073ffffffffffffffffffffffffffffffffffffffff168473ffffffffffffffffffffffffffffffffffffffff160361248f5761248a82612a7f565b6124ce565b8273ffffffffffffffffffffffffffffffffffffffff168473ffffffffffffffffffffffffffffffffffffffff16146124cd576124cc8483612ac8565b5b5b600073ffffffffffffffffffffffffffffffffffffffff168373ffffffffffffffffffffffffffffffffffffffff16036125105761250b82612c35565b61254f565b8373ffffffffffffffffffffffffffffffffffffffff168373ffffffffffffffffffffffffffffffffffffffff161461254e5761254d8383612d06565b5b5b50505050565b50505050565b60006125668261103a565b9050612576816000846001612441565b61257f8261103a565b90506004600083815260200190815260200160002060006101000a81549073ffffffffffffffffffffffffffffffffffffffff02191690556001600360008373ffffffffffffffffffffffffffffffffffffffff1673ffffffffffffffffffffffffffffffffffffffff168152602001908152602001600020600082825403925050819055506002600083815260200190815260200160002060006101000a81549073ffffffffffffffffffffffffffffffffffffffff021916905581600073ffffffffffffffffffffffffffffffffffffffff168273ffffffffffffffffffffffffffffffffffffffff167fddf252ad1be2c89b69c2b068fc378daa952ba7f163c4a11628f55a4df523b3ef60405160405180910390a46126a5816000846001612555565b5050565b60006126ca8473ffffffffffffffffffffffffffffffffffffffff16612d85565b15612823578373ffffffffffffffffffffffffffffffffffffffff1663150b7a026126f361193b565b8786866040518563ffffffff1660e01b81526004016127159493929190614b43565b6020604051808303816000875af192505050801561275157506040513d601f19601f8201168201806040525081019061274e9190614ba4565b60015b6127d3573d8060008114612781576040519150601f19603f3d011682016040523d82523d6000602084013e612786565b606091505b5060008151036127cb576040517f08c379a00000000000000000000000000000000000000000000000000000000081526004016127c29061470d565b60405180910390fd5b805181602001fd5b63150b7a0260e01b7bffffffffffffffffffffffffffffffffffffffffffffffffffffffff1916817bffffffffffffffffffffffffffffffffffffffffffffffffffffffff191614915050612828565b600190505b949350505050565b61283a8383612da8565b61284760008484846126a9565b612886576040517f08c379a000000000000000000000000000000000000000000000000000000000815260040161287d9061470d565b60405180910390fd5b505050565b60606000600161289a84612fc5565b01905060008167ffffffffffffffff8111156128b9576128b861367b565b5b6040519080825280601f01601f1916602001820160405280156128eb5781602001600182028036833780820191505090505b509050600082602001820190505b60011561294e578080600190039150507f3031323334353637383961626364656600000000000000000000000000000000600a86061a8153600a858161294257612941614bd1565b5b049450600085036128f9575b819350505050919050565b6001811115612a7957600073ffffffffffffffffffffffffffffffffffffffff168473ffffffffffffffffffffffffffffffffffffffff16146129ed5780600360008673ffffffffffffffffffffffffffffffffffffffff1673ffffffffffffffffffffffffffffffffffffffff16815260200190815260200160002060008282546129e59190614c00565b925050819055505b600073ffffffffffffffffffffffffffffffffffffffff168373ffffffffffffffffffffffffffffffffffffffff1614612a785780600360008573ffffffffffffffffffffffffffffffffffffffff1673ffffffffffffffffffffffffffffffffffffffff1681526020019081526020016000206000828254612a709190613fda565b925050819055505b5b50505050565b600a80549050600f600083815260200190815260200160002081905550600a81908060018154018082558091505060019003906000526020600020016000909190919091505550565b60006001612ad584611172565b612adf9190614c00565b90506000600e6000848152602001908152602001600020549050818114612bc4576000600d60008673ffffffffffffffffffffffffffffffffffffffff1673ffffffffffffffffffffffffffffffffffffffff168152602001908152602001600020600084815260200190815260200160002054905080600d60008773ffffffffffffffffffffffffffffffffffffffff1673ffffffffffffffffffffffffffffffffffffffff16815260200190815260200160002060008481526020019081526020016000208190555081600e600083815260200190815260200160002081905550505b600e600084815260200190815260200160002060009055600d60008573ffffffffffffffffffffffffffffffffffffffff1673ffffffffffffffffffffffffffffffffffffffff16815260200190815260200160002060008381526020019081526020016000206000905550505050565b60006001600a80549050612c499190614c00565b90506000600f60008481526020019081526020016000205490506000600a8381548110612c7957612c78613f7c565b5b9060005260206000200154905080600a8381548110612c9b57612c9a613f7c565b5b906000526020600020018190555081600f600083815260200190815260200160002081905550600f600085815260200190815260200160002060009055600a805480612cea57612ce9614c34565b5b6001900381819060005260206000200160009055905550505050565b6000612d1183611172565b905081600d60008573ffffffffffffffffffffffffffffffffffffffff1673ffffffffffffffffffffffffffffffffffffffff16815260200190815260200160002060008381526020019081526020016000208190555080600e600084815260200190815260200160002081905550505050565b6000808273ffffffffffffffffffffffffffffffffffffffff163b119050919050565b600073ffffffffffffffffffffffffffffffffffffffff168273ffffffffffffffffffffffffffffffffffffffff1603612e17576040517f08c379a0000000000000000000000000000000000000000000000000000000008152600401612e0e90614caf565b60405180910390fd5b612e2081612400565b15612e60576040517f08c379a0000000000000000000000000000000000000000000000000000000008152600401612e5790614d1b565b60405180910390fd5b612e6e600083836001612441565b612e7781612400565b15612eb7576040517f08c379a0000000000000000000000000000000000000000000000000000000008152600401612eae90614d1b565b60405180910390fd5b6001600360008473ffffffffffffffffffffffffffffffffffffffff1673ffffffffffffffffffffffffffffffffffffffff16815260200190815260200160002060008282540192505081905550816002600083815260200190815260200160002060006101000a81548173ffffffffffffffffffffffffffffffffffffffff021916908373ffffffffffffffffffffffffffffffffffffffff160217905550808273ffffffffffffffffffffffffffffffffffffffff16600073ffffffffffffffffffffffffffffffffffffffff167fddf252ad1be2c89b69c2b068fc378daa952ba7f163c4a11628f55a4df523b3ef60405160405180910390a4612fc1600083836001612555565b5050565b600080600090507a184f03e93ff9f4daa797ed6e38ed64bf6a1f0100000000000000008310613023577a184f03e93ff9f4daa797ed6e38ed64bf6a1f010000000000000000838161301957613018614bd1565b5b0492506040810190505b6d04ee2d6d415b85acef81000000008310613060576d04ee2d6d415b85acef8100000000838161305657613055614bd1565b5b0492506020810190505b662386f26fc10000831061308f57662386f26fc10000838161308557613084614bd1565b5b0492506010810190505b6305f5e10083106130b8576305f5e10083816130ae576130ad614bd1565b5b0492506008810190505b61271083106130dd5761271083816130d3576130d2614bd1565b5b0492506004810190505b6064831061310057606483816130f6576130f5614bd1565b5b0492506002810190505b600a831061310f576001810190505b80915050919050565b60405180608001604052806000815260200160008152602001600073ffffffffffffffffffffffffffffffffffffffff1681526020016000151581525090565b50805461316490613ae7565b6000825580601f106131765750613195565b601f0160209004906000526020600020908101906131949190613198565b5b50565b5b808211156131b1576000816000905550600101613199565b5090565b6000604051905090565b600080fd5b600080fd5b60007fffffffff0000000000000000000000000000000000000000000000000000000082169050919050565b6131fe816131c9565b811461320957600080fd5b50565b60008135905061321b816131f5565b92915050565b600060208284031215613237576132366131bf565b5b60006132458482850161320c565b91505092915050565b60008115159050919050565b6132638161324e565b82525050565b600060208201905061327e600083018461325a565b92915050565b600081519050919050565b600082825260208201905092915050565b60005b838110156132be5780820151818401526020810190506132a3565b60008484015250505050565b6000601f19601f8301169050919050565b60006132e682613284565b6132f0818561328f565b93506133008185602086016132a0565b613309816132ca565b840191505092915050565b6000602082019050818103600083015261332e81846132db565b905092915050565b6000819050919050565b61334981613336565b811461335457600080fd5b50565b60008135905061336681613340565b92915050565b600060208284031215613382576133816131bf565b5b600061339084828501613357565b91505092915050565b600073ffffffffffffffffffffffffffffffffffffffff82169050919050565b60006133c482613399565b9050919050565b6133d4816133b9565b82525050565b60006020820190506133ef60008301846133cb565b92915050565b6133fe816133b9565b811461340957600080fd5b50565b60008135905061341b816133f5565b92915050565b60008060408385031215613438576134376131bf565b5b60006134468582860161340c565b925050602061345785828601613357565b9150509250929050565b61346a81613336565b82525050565b60006020820190506134856000830184613461565b92915050565b600080604083850312156134a2576134a16131bf565b5b60006134b085828601613357565b92505060206134c185828601613357565b9150509250929050565b6000806000606084860312156134e4576134e36131bf565b5b60006134f28682870161340c565b93505060206135038682870161340c565b925050604061351486828701613357565b9150509250925092565b600081519050919050565b600082825260208201905092915050565b6000819050602082019050919050565b61355381613336565b82525050565b613562816133b9565b82525050565b6135718161324e565b82525050565b60808201600082015161358d600085018261354a565b5060208201516135a0602085018261354a565b5060408201516135b36040850182613559565b5060608201516135c66060850182613568565b50505050565b60006135d88383613577565b60808301905092915050565b6000602082019050919050565b60006135fc8261351e565b6136068185613529565b93506136118361353a565b8060005b8381101561364257815161362988826135cc565b9750613634836135e4565b925050600181019050613615565b5085935050505092915050565b6000602082019050818103600083015261366981846135f1565b905092915050565b600080fd5b600080fd5b7f4e487b7100000000000000000000000000000000000000000000000000000000600052604160045260246000fd5b6136b3826132ca565b810181811067ffffffffffffffff821117156136d2576136d161367b565b5b80604052505050565b60006136e56131b5565b90506136f182826136aa565b919050565b600067ffffffffffffffff8211156137115761371061367b565b5b61371a826132ca565b9050602081019050919050565b82818337600083830152505050565b6000613749613744846136f6565b6136db565b90508281526020810184848401111561376557613764613676565b5b613770848285613727565b509392505050565b600082601f83011261378d5761378c613671565b5b813561379d848260208601613736565b91505092915050565b6000602082840312156137bc576137bb6131bf565b5b600082013567ffffffffffffffff8111156137da576137d96131c4565b5b6137e684828501613778565b91505092915050565b608082016000820151613805600085018261354a565b506020820151613818602085018261354a565b50604082015161382b6040850182613559565b50606082015161383e6060850182613568565b50505050565b600060808201905061385960008301846137ef565b92915050565b600060208284031215613875576138746131bf565b5b60006138838482850161340c565b91505092915050565b6138958161324e565b81146138a057600080fd5b50565b6000813590506138b28161388c565b92915050565b600080604083850312156138cf576138ce6131bf565b5b60006138dd8582860161340c565b92505060206138ee858286016138a3565b9150509250929050565b600067ffffffffffffffff8211156139135761391261367b565b5b61391c826132ca565b9050602081019050919050565b600061393c613937846138f8565b6136db565b90508281526020810184848401111561395857613957613676565b5b613963848285613727565b509392505050565b600082601f8301126139805761397f613671565b5b8135613990848260208601613929565b91505092915050565b600080600080608085870312156139b3576139b26131bf565b5b60006139c18782880161340c565b94505060206139d28782880161340c565b93505060406139e387828801613357565b925050606085013567ffffffffffffffff811115613a0457613a036131c4565b5b613a108782880161396b565b91505092959194509250565b60008060408385031215613a3357613a326131bf565b5b600083013567ffffffffffffffff811115613a5157613a506131c4565b5b613a5d85828601613778565b9250506020613a6e85828601613357565b9150509250929050565b60008060408385031215613a8f57613a8e6131bf565b5b6000613a9d8582860161340c565b9250506020613aae8582860161340c565b9150509250929050565b7f4e487b7100000000000000000000000000000000000000000000000000000000600052602260045260246000fd5b60006002820490506001821680613aff57607f821691505b602082108103613b1257613b11613ab8565b5b50919050565b7f4552433732313a20617070726f76616c20746f2063757272656e74206f776e6560008201527f7200000000000000000000000000000000000000000000000000000000000000602082015250565b6000613b7460218361328f565b9150613b7f82613b18565b604082019050919050565b60006020820190508181036000830152613ba381613b67565b9050919050565b7f4552433732313a20617070726f76652063616c6c6572206973206e6f7420746f60008201527f6b656e206f776e6572206f7220617070726f76656420666f7220616c6c000000602082015250565b6000613c06603d8361328f565b9150613c1182613baa565b604082019050919050565b60006020820190508181036000830152613c3581613bf9565b9050919050565b7f596f7520617265206e6f74206f776e6572206f662074686973206e6674000000600082015250565b6000613c72601d8361328f565b9150613c7d82613c3c565b602082019050919050565b60006020820190508181036000830152613ca181613c65565b9050919050565b7f4974656d20697320616c7265616479206f6e2073616c65000000000000000000600082015250565b6000613cde60178361328f565b9150613ce982613ca8565b602082019050919050565b60006020820190508181036000830152613d0d81613cd1565b9050919050565b7f5072696365206d75737420626520657175616c20746f206c697374696e67207060008201527f7269636500000000000000000000000000000000000000000000000000000000602082015250565b6000613d7060248361328f565b9150613d7b82613d14565b604082019050919050565b60006020820190508181036000830152613d9f81613d63565b9050919050565b7f4552433732313a2063616c6c6572206973206e6f7420746f6b656e206f776e6560008201527f72206f7220617070726f76656400000000000000000000000000000000000000602082015250565b6000613e02602d8361328f565b9150613e0d82613da6565b604082019050919050565b60006020820190508181036000830152613e3181613df5565b9050919050565b7f796f7520616c726561647920686f6c6420746865204e46540000000000000000600082015250565b6000613e6e60188361328f565b9150613e7982613e38565b602082019050919050565b60006020820190508181036000830152613e9d81613e61565b9050919050565b7f706c65617365207375626d6974207468652061736b696e672070726963650000600082015250565b6000613eda601e8361328f565b9150613ee582613ea4565b602082019050919050565b60006020820190508181036000830152613f0981613ecd565b9050919050565b7f496e646578206f7574206f6620626f756e647300000000000000000000000000600082015250565b6000613f4660138361328f565b9150613f5182613f10565b602082019050919050565b60006020820190508181036000830152613f7581613f39565b9050919050565b7f4e487b7100000000000000000000000000000000000000000000000000000000600052603260045260246000fd5b7f4e487b7100000000000000000000000000000000000000000000000000000000600052601160045260246000fd5b6000613fe582613336565b9150613ff083613336565b925082820190508082111561400857614007613fab565b5b92915050565b600061401982613336565b91507fffffffffffffffffffffffffffffffffffffffffffffffffffffffffffffffff820361404b5761404a613fab565b5b600182019050919050565b600081905092915050565b600061406c82613284565b6140768185614056565b93506140868185602086016132a0565b80840191505092915050565b600061409e8284614061565b915081905092915050565b7f696e646578206f7574206f662072616e67650000000000000000000000000000600082015250565b60006140df60128361328f565b91506140ea826140a9565b602082019050919050565b6000602082019050818103600083015261410e816140d2565b9050919050565b7f4552433732313a20696e76616c696420746f6b656e2049440000000000000000600082015250565b600061414b60188361328f565b915061415682614115565b602082019050919050565b6000602082019050818103600083015261417a8161413e565b9050919050565b7f4552433732313a2061646472657373207a65726f206973206e6f74206120766160008201527f6c6964206f776e65720000000000000000000000000000000000000000000000602082015250565b60006141dd60298361328f565b91506141e882614181565b604082019050919050565b6000602082019050818103600083015261420c816141d0565b9050919050565b7f5072696365206d757374206265206174206c6561737420312077656900000000600082015250565b6000614249601c8361328f565b915061425482614213565b602082019050919050565b600060208201905081810360008301526142788161423c565b9050919050565b7f546f6b656e2055524920616c726561647920696e207573650000000000000000600082015250565b60006142b560188361328f565b91506142c08261427f565b602082019050919050565b600060208201905081810360008301526142e4816142a8565b9050919050565b7f7072696365206d75737420626520657175616c20746f206c697374696e67207060008201527f7269636500000000000000000000000000000000000000000000000000000000602082015250565b600061434760248361328f565b9150614352826142eb565b604082019050919050565b600060208201905081810360008301526143768161433a565b9050919050565b60006143898285614061565b91506143958284614061565b91508190509392505050565b7f4f776e61626c653a206e6577206f776e657220697320746865207a65726f206160008201527f6464726573730000000000000000000000000000000000000000000000000000602082015250565b60006143fd60268361328f565b9150614408826143a1565b604082019050919050565b6000602082019050818103600083015261442c816143f0565b9050919050565b7f4552433732313a207472616e736665722066726f6d20696e636f72726563742060008201527f6f776e6572000000000000000000000000000000000000000000000000000000602082015250565b600061448f60258361328f565b915061449a82614433565b604082019050919050565b600060208201905081810360008301526144be81614482565b9050919050565b7f4552433732313a207472616e7366657220746f20746865207a65726f2061646460008201527f7265737300000000000000000000000000000000000000000000000000000000602082015250565b600061452160248361328f565b915061452c826144c5565b604082019050919050565b6000602082019050818103600083015261455081614514565b9050919050565b7f436f756e7465723a2064656372656d656e74206f766572666c6f770000000000600082015250565b600061458d601b8361328f565b915061459882614557565b602082019050919050565b600060208201905081810360008301526145bc81614580565b9050919050565b7f4f776e61626c653a2063616c6c6572206973206e6f7420746865206f776e6572600082015250565b60006145f960208361328f565b9150614604826145c3565b602082019050919050565b60006020820190508181036000830152614628816145ec565b9050919050565b7f4552433732313a20617070726f766520746f2063616c6c657200000000000000600082015250565b600061466560198361328f565b91506146708261462f565b602082019050919050565b6000602082019050818103600083015261469481614658565b9050919050565b7f4552433732313a207472616e7366657220746f206e6f6e20455243373231526560008201527f63656976657220696d706c656d656e7465720000000000000000000000000000602082015250565b60006146f760328361328f565b91506147028261469b565b604082019050919050565b60006020820190508181036000830152614726816146ea565b9050919050565b7f45524337323155524953746f726167653a2055524920736574206f66206e6f6e60008201527f6578697374656e7420746f6b656e000000000000000000000000000000000000602082015250565b6000614789602e8361328f565b91506147948261472d565b604082019050919050565b600060208201905081810360008301526147b88161477c565b9050919050565b60008190508160005260206000209050919050565b60006020601f8301049050919050565b600082821b905092915050565b6000600883026148217fffffffffffffffffffffffffffffffffffffffffffffffffffffffffffffffff826147e4565b61482b86836147e4565b95508019841693508086168417925050509392505050565b6000819050919050565b600061486861486361485e84613336565b614843565b613336565b9050919050565b6000819050919050565b6148828361484d565b61489661488e8261486f565b8484546147f1565b825550505050565b600090565b6148ab61489e565b6148b6818484614879565b505050565b5b818110156148da576148cf6000826148a3565b6001810190506148bc565b5050565b601f82111561491f576148f0816147bf565b6148f9846147d4565b81016020851015614908578190505b61491c614914856147d4565b8301826148bb565b50505b505050565b600082821c905092915050565b600061494260001984600802614924565b1980831691505092915050565b600061495b8383614931565b9150826002028217905092915050565b61497482613284565b67ffffffffffffffff81111561498d5761498c61367b565b5b6149978254613ae7565b6149a28282856148de565b600060209050601f8311600181146149d557600084156149c3578287015190505b6149cd858261494f565b865550614a35565b601f1984166149e3866147bf565b60005b82811015614a0b578489015182556001820191506020850194506020810190506149e6565b86831015614a285784890151614a24601f891682614931565b8355505b6001600288020188555050505b505050505050565b7f7072696365206d757374206265206174206c6561737420312077656900000000600082015250565b6000614a73601c8361328f565b9150614a7e82614a3d565b602082019050919050565b60006020820190508181036000830152614aa281614a66565b9050919050565b6000608082019050614abe6000830187613461565b614acb6020830186613461565b614ad860408301856133cb565b614ae5606083018461325a565b95945050505050565b600081519050919050565b600082825260208201905092915050565b6000614b1582614aee565b614b1f8185614af9565b9350614b2f8185602086016132a0565b614b38816132ca565b840191505092915050565b6000608082019050614b5860008301876133cb565b614b6560208301866133cb565b614b726040830185613461565b8181036060830152614b848184614b0a565b905095945050505050565b600081519050614b9e816131f5565b92915050565b600060208284031215614bba57614bb96131bf565b5b6000614bc884828501614b8f565b91505092915050565b7f4e487b7100000000000000000000000000000000000000000000000000000000600052601260045260246000fd5b6000614c0b82613336565b9150614c1683613336565b9250828203905081811115614c2e57614c2d613fab565b5b92915050565b7f4e487b7100000000000000000000000000000000000000000000000000000000600052603160045260246000fd5b7f4552433732313a206d696e7420746f20746865207a65726f2061646472657373600082015250565b6000614c9960208361328f565b9150614ca482614c63565b602082019050919050565b60006020820190508181036000830152614cc881614c8c565b9050919050565b7f4552433732313a20746f6b656e20616c7265616479206d696e74656400000000600082015250565b6000614d05601c8361328f565b9150614d1082614ccf565b602082019050919050565b60006020820190508181036000830152614d3481614cf8565b905091905056fea2646970667358221220ba0fe90af0826e319c9d50d4387622c88ebc7233e10c26f7dfac2f7310bd97b264736f6c63430008120033",
  "immutableReferences": {},
  "source": "// SPDX-License-Identifier: MIT\npragma solidity >=0.4.22 <0.9.0;\n\nimport \"@openzeppelin/contracts/token/ERC721/extensions/ERC721URIStorage.sol\";\nimport \"@openzeppelin/contracts/utils/Counters.sol\";\nimport \"@openzeppelin/contracts/access/Ownable.sol\";\n\ncontract NftMarket is ERC721URIStorage, Ownable {\n    using Counters for Counters.Counter;\n    Counters.Counter private _listedItems;\n    Counters.Counter private _tokenIds;\n\n    //all tokenIds\n    uint256[] private _allNfts;\n\n    mapping(string => bool) private _usedTokenURIs;\n    mapping(uint => NftItem) private _idToNftItem;\n\n    //map tokens to all onwers\n    mapping(address => mapping(uint => uint)) private _ownedTokens;\n    mapping(uint => uint) private _idToOwnedIndex;\n\n    mapping(uint => uint) private _idToNftIndex;\n\n    struct NftItem {\n        uint tokenId;\n        uint price;\n        address creator;\n        bool isListed;\n    }\n    event NftItemCreated(\n        uint tokenId,\n        uint price,\n        address creator,\n        bool isListed\n    );\n\n    uint public listingPrice = 0.0025 ether;\n\n    constructor() ERC721(\"CreaturesNFT\", \"CNFT\") {}\n\n    function setListingPrice(uint newPrice) external onlyOwner {\n        require(newPrice > 0, \"Price must be at least 1 wei\");\n        listingPrice = newPrice;\n    }\n\n    function tokenURIExists(string memory tokenURI) public view returns (bool) {\n        return _usedTokenURIs[tokenURI] == true;\n    }\n\n    function getNftItem(uint tokenId) public view returns (NftItem memory) {\n        return _idToNftItem[tokenId];\n    }\n\n    function listedItemsCount() public view returns (uint) {\n        return _listedItems.current();\n    }\n\n    function totalSupply() public view returns (uint) {\n        return _allNfts.length;\n    }\n\n    function tokenByIndex(uint index) public view returns (uint) {\n        require(index < totalSupply(), \"index out of range\");\n        return _allNfts[index];\n    }\n\n    function getAllNftsOnSale() public view returns (NftItem[] memory) {\n        uint allItemsCounts = totalSupply();\n        uint currentIndex = 0;\n        NftItem[] memory items = new NftItem[](_listedItems.current());\n\n        for (uint i = 0; i < allItemsCounts; i++) {\n            uint tokenId = tokenByIndex(i);\n            NftItem storage item = _idToNftItem[tokenId];\n\n            if (item.isListed == true) {\n                items[currentIndex] = item;\n                currentIndex += 1;\n            }\n        }\n\n        return items;\n    }\n\n    function tokenOfOwnerByIndex(\n        address owner,\n        uint index\n    ) public view returns (uint) {\n        require(index < ERC721.balanceOf(owner), \"Index out of bounds\");\n        return _ownedTokens[owner][index];\n    }\n\n    //get owned nfts\n\n    function getOwnedNfts() public view returns (NftItem[] memory) {\n        uint ownedItemsCount = ERC721.balanceOf(msg.sender);\n        NftItem[] memory items = new NftItem[](ownedItemsCount);\n        for (uint i = 0; i < ownedItemsCount; i++) {\n            uint tokenId = tokenOfOwnerByIndex(msg.sender, i);\n            NftItem storage item = _idToNftItem[tokenId];\n            items[i] = item;\n        }\n        return items;\n    }\n\n    //mint a token\n    function mintToken(\n        string memory tokenURI,\n        uint price\n    ) public payable returns (uint) {\n        require(!tokenURIExists(tokenURI), \"Token URI already in use\");\n        require(\n            msg.value == listingPrice,\n            \"price must be equal to listing price\"\n        );\n        _tokenIds.increment();\n\n        _listedItems.increment();\n        uint newTokenId = _tokenIds.current();\n        _safeMint(msg.sender, newTokenId);\n        _setTokenURI(newTokenId, tokenURI);\n        _createNftItem(newTokenId, price);\n        _usedTokenURIs[tokenURI] = true;\n        return newTokenId;\n    }\n\n    function buyNft(uint tokenId) public payable {\n        uint price = _idToNftItem[tokenId].price;\n        address owner = ERC721.ownerOf(tokenId);\n        require(msg.sender != owner, \"you already hold the NFT\");\n        require(msg.value == price, \"please submit the asking price\");\n        _idToNftItem[tokenId].isListed = false;\n        _listedItems.decrement();\n        _transfer(owner, msg.sender, tokenId);\n    }\n\n    function placeNftOnSale(uint tokenId, uint newPrice) public payable {\n        require(\n            ERC721.ownerOf(tokenId) == msg.sender,\n            \"You are not owner of this nft\"\n        );\n        require(\n            _idToNftItem[tokenId].isListed == false,\n            \"Item is already on sale\"\n        );\n        require(\n            msg.value == listingPrice,\n            \"Price must be equal to listing price\"\n        );\n\n        _idToNftItem[tokenId].isListed = true;\n        _idToNftItem[tokenId].price = newPrice;\n        _listedItems.increment();\n    }\n\n    function _createNftItem(uint tokenId, uint price) private {\n        require(price > 0, \"price must be at least 1 wei\");\n        _idToNftItem[tokenId] = NftItem(tokenId, price, msg.sender, true);\n        emit NftItemCreated(tokenId, price, msg.sender, true);\n    }\n\n    function _beforeTokenTransfer(\n        address from,\n        address to,\n        uint tokenId,\n        uint256 batchSize\n    ) internal virtual override {\n        super._beforeTokenTransfer(from, to, tokenId, batchSize);\n\n        // minting token\n        if (from == address(0)) {\n            _addTokenToAllTokensEnumeration(tokenId);\n        } else if (from != to) {\n            _removeTokenFromOwnerEnumeration(from, tokenId);\n        }\n        if (to == address(0)) {\n            _removeTokenFromAllTokensEnumeration(tokenId);\n        } else if (to != from) {\n            _addTokenToOwnerEnumeration(to, tokenId);\n        }\n    }\n\n    function _addTokenToAllTokensEnumeration(uint tokenId) private {\n        _idToNftIndex[tokenId] = _allNfts.length;\n        _allNfts.push(tokenId);\n    }\n\n    function _addTokenToOwnerEnumeration(address to, uint tokenId) private {\n        uint length = ERC721.balanceOf(to);\n        _ownedTokens[to][length] = tokenId;\n        _idToOwnedIndex[tokenId] = length;\n    }\n\n    //remove token from 1 owner\n    function _removeTokenFromOwnerEnumeration(\n        address from,\n        uint tokenId\n    ) private {\n        uint lastTokenIndex = ERC721.balanceOf(from) - 1;\n        uint tokenIndex = _idToOwnedIndex[tokenId];\n\n        if (tokenIndex != lastTokenIndex) {\n            uint lastTokenId = _ownedTokens[from][lastTokenIndex];\n\n            _ownedTokens[from][tokenIndex] = lastTokenId;\n            _idToOwnedIndex[lastTokenId] = tokenIndex;\n        }\n\n        delete _idToOwnedIndex[tokenId];\n        delete _ownedTokens[from][lastTokenIndex];\n    }\n\n    //remove token from root\n    function _removeTokenFromAllTokensEnumeration(uint tokenId) private {\n        uint lastTokenIndex = _allNfts.length - 1;\n        uint tokenIndex = _idToNftIndex[tokenId];\n        uint lastTokenId = _allNfts[lastTokenIndex];\n\n        _allNfts[tokenIndex] = lastTokenId;\n        _idToNftIndex[lastTokenId] = tokenIndex;\n\n        delete _idToNftIndex[tokenId];\n        _allNfts.pop();\n    }\n\n    //burn token\n    function burnToken(uint tokenId) public {\n        _burn(tokenId);\n    }\n}\n",
  "sourcePath": "/Users/fuqixuan/Documents/vscode/BlockChain/nft-marketplace/contracts/NftMarket.sol",
  "compiler": {
    "name": "solc",
    "version": "0.8.18+commit.87f61d96.Emscripten.clang"
  },
  "schemaVersion": "3.4.12",
  "updatedAt": "2023-03-14T11:20:14.114Z",
  "networkType": "ethereum",
  "devdoc": {
    "events": {
      "Approval(address,address,uint256)": {
        "details": "Emitted when `owner` enables `approved` to manage the `tokenId` token."
      },
      "ApprovalForAll(address,address,bool)": {
        "details": "Emitted when `owner` enables or disables (`approved`) `operator` to manage all of its assets."
      },
      "Transfer(address,address,uint256)": {
        "details": "Emitted when `tokenId` token is transferred from `from` to `to`."
      }
    },
    "kind": "dev",
    "methods": {
      "approve(address,uint256)": {
        "details": "See {IERC721-approve}."
      },
      "balanceOf(address)": {
        "details": "See {IERC721-balanceOf}."
      },
      "getApproved(uint256)": {
        "details": "See {IERC721-getApproved}."
      },
      "isApprovedForAll(address,address)": {
        "details": "See {IERC721-isApprovedForAll}."
      },
      "name()": {
        "details": "See {IERC721Metadata-name}."
      },
      "owner()": {
        "details": "Returns the address of the current owner."
      },
      "ownerOf(uint256)": {
        "details": "See {IERC721-ownerOf}."
      },
      "renounceOwnership()": {
        "details": "Leaves the contract without owner. It will not be possible to call `onlyOwner` functions anymore. Can only be called by the current owner. NOTE: Renouncing ownership will leave the contract without an owner, thereby removing any functionality that is only available to the owner."
      },
      "safeTransferFrom(address,address,uint256)": {
        "details": "See {IERC721-safeTransferFrom}."
      },
      "safeTransferFrom(address,address,uint256,bytes)": {
        "details": "See {IERC721-safeTransferFrom}."
      },
      "setApprovalForAll(address,bool)": {
        "details": "See {IERC721-setApprovalForAll}."
      },
      "supportsInterface(bytes4)": {
        "details": "See {IERC165-supportsInterface}."
      },
      "symbol()": {
        "details": "See {IERC721Metadata-symbol}."
      },
      "tokenURI(uint256)": {
        "details": "See {IERC721Metadata-tokenURI}."
      },
      "transferFrom(address,address,uint256)": {
        "details": "See {IERC721-transferFrom}."
      },
      "transferOwnership(address)": {
        "details": "Transfers ownership of the contract to a new account (`newOwner`). Can only be called by the current owner."
      }
    },
    "version": 1
  },
  "userdoc": {
    "kind": "user",
    "methods": {},
    "version": 1
  }
}